:020000040800F2
:1000000000000220511C0008710900087309000853
:100010007509000877090008790900080000000048
:100020000000000000000000000000007B09000844
:100030007D090008000000007F0900088109000810
:10004000A11C0008A11C0008A11C0008A11C00089C
:10005000A11C0008A11C0008A11C0008A11C00088C
:10006000A11C0008A11C0008A11C0008A11C00087C
:10007000A11C0008A11C0008A11C0008A11C00086C
:10008000A11C0008A11C0008A11C0008A11C00085C
:10009000A11C0008A11C0008A11C0008A11C00084C
:1000A000A11C0008A11C0008A11C0008A11C00083C
:1000B000A11C0008A11C0008A11C0008A11C00082C
:1000C000A11C0008A11C0008A11C0008A11C00081C
:1000D000A11C0008A11C0008A11C0008A11C00080C
:1000E000A11C0008A11C000800000000A11C0008C1
:1000F000A11C0008A11C0008A11C0008A11C0008EC
:10010000A11C0008A11C0008A11C0008A11C0008DB
:10011000A11C0008A11C0008A11C0008A11C0008CB
:10012000A11C0008A11C0008A11C0008A11C0008BB
:10013000A11C0008A11C0008A11C0008A11C0008AB
:1001400000000000000000000000000000000000AF
:10015000A11C0008A11C0008A11C0008A11C00088B
:10016000A11C0008A11C0008A11C0008A11C00087B
:10017000A11C0008A11C0008A11C0008A11C00086B
:10018000A11C0008A11C0008A11C0008A11C00085B
:10019000A11C0008A11C0008A11C0008A11C00084B
:1001A000A11C0008A11C0008A11C0008A11C00083B
:1001B000A11C0008A11C0008A11C0008A11C00082B
:1001C000A11C0008A11C0008A11C0008A11C00081B
:1001D000A11C0008A11C0008A11C0008A11C00080B
:1001E000A11C0008A11C0008A11C0008A11C0008FB
:1001F000A11C0008A11C0008A11C0008A11C0008EB
:10020000A11C0008A11C0008A11C0008A11C0008DA
:10021000A11C0008A11C0008A11C0008A11C0008CA
:10022000A11C0008A11C0008A11C0008000000007F
:10023000A11C0008A11C000800000000A11C00086F
:10024000A11C0008A11C0008A11C0008A11C00089A
:10025000A11C0008A11C0008A11C0008A11C00088A
:10026000A11C0008A11C0008A11C0008A11C00087A
:10027000A11C0008A11C0008A11C0008000000002F
:10028000A11C0008A11C0008A11C0008000000001F
:1002900000000000A11C000810B5054C237833B9FC
:1002A000044B13B10448AFF300800123237010BD49
:1002B0003C04002000000000081E000808B5034BA5
:1002C0001BB103490348AFF3008008BD00000000E4
:1002D00040040020081E000880B59CB0BFF34F8F7B
:1002E000BFF36F8F684B0021C3F85012BFF34F8FDD
:1002F000BFF36F8F5A6942F400325A61BFF34F8FD8
:10030000BFF36F8FC3F88410BFF34F8FD3F88020F3
:1003100043F6E076C2F3C904C2F34E32A507520198
:1003200002EA060C284621464CEA0007013900F192
:100330004040C3F860724F1CF6D1203A12F1200FF2
:10034000EED1BFF34F8F5A6942F480325A61BFF346
:100350004F8FBFF36F8F00F079FB022000F016FD86
:1003600000230093494BDA6A22F00102DA62DB6A69
:1003700003F001030093464B9A6942F440429A61AC
:100380009A6902F440420092009A9A699404FCD55A
:100390004FF480334FF0010E0520A02102220424E7
:1003A00008251692189217941995CDE909E30023B0
:1003B000CDE9140109A80C9310931B931A93CDE96E
:1003C000122201F005F800B1FEE703234FF03F0CC5
:1003D0004FF480622146CDE901C34023CDE90305F6
:1003E00001A8CDE90533CDE9072301F00DFB00B1EC
:1003F000FEE700F0BBF900B1FEE7BFF34F8FBFF39C
:100400006F8F214B5A6922F400325A61C3F85002AF
:10041000BFF34F8FBFF36F8FC3F88400BFF34F8FCD
:100420005A6922F480325A61BFF34F8FD3F880208B
:1004300043F6E076C2F3C904C2F34E32A507520177
:1004400002EA060C284621464CEA0007013900F171
:100450004040C3F874724F1CF6D1203A12F1200FBD
:10046000EED1BFF34F8FBFF36F8F0A4B00221A609C
:10047000094B0A4A1B6813604FF01042126882F35E
:1004800008889847FEE700BF00ED00E00004005830
:100490000048025810E000E00400009058040020DA
:1004A0007B4B2DE9F04FD3F8D42091B0794D09243E
:1004B00042F480420026784F0BA9C3F8D420284686
:1004C000D3F8D4204FF040084FF00A0BDFF8D0A14A
:1004D00002F480424FF400790092009ADA6F42F4FD
:1004E0008042DA67DA6F22F48042DA67D3F8E020DC
:1004F00042F02002C3F8E020D3F8E02002F020020E
:100500000192019AD3F8E02042F00802C3F8E020FB
:10051000D3F8E02002F008020292029AD3F8E02019
:1005200042F02002C3F8E020D3F8E02002F02002DD
:100530000392039AD3F8E02042F02002C3F8E020AF
:10054000D3F8E02002F020020492049AD3F8E020CD
:1005500042F02002C3F8E020D3F8E02002F02002AD
:100560000592059AD3F8E02042F04002C3F8E0205B
:10057000D3F8E02002F040020692069AD3F8E02079
:1005800042F08002C3F8E020D3F8E02002F08002BD
:100590000792079AD3F8E02042F08002C3F8E020E7
:1005A000D3F8E02002F080020892089AD3F8E02005
:1005B00042F04002C3F8E020D3F8E02002F040020D
:1005C0000992099AD3F8E02042F04002C3F8E020F3
:1005D0004FF48062D3F8E03003F040030A930A9BA3
:1005E0000223CDE90B230323CDE90D630F9400F023
:1005F000DBFA01230BA93846CDF82C800D93CDF8FA
:100600003CB000F0D1FA4FF400630BA923480B93E0
:100610000D960F9400F0C8FA04230BA950460F94CE
:100620000B9300F0C1FA0BA92846CDF82C90CDF819
:100630003CB000F0B9FA08230BA950460F940B9375
:1006400000F0B2FA80230BA928460F940B9300F018
:10065000ABFA0BA93846CDF82C9000F0A5FA0BA9FF
:100660002846CDF82C8000F09FFA4FF480430BA968
:1006700038460B9300F098FA32460F215C2000F0C8
:100680003DFA5C2000F06CFA11B0BDE8F08F00BFBD
:10069000004402580014025800180258000C025876
:1006A000001C025800B54FF4407395B04FF04072F3
:1006B00011480C9305230F920222069300230B92FC
:1006C00006A913930093049303926A46CDE90D3370
:1006D000CDE91133102302934FF48003059340F2C8
:1006E0000113019341F2883300F0D9FD003018BFA7
:1006F000012015B05DF804FB5C04002000B54FF448
:10070000407395B041F2883217480C93062306A92E
:1007100006930023CDE90D330F930B931393CDE98B
:10072000113300F0BCFCE8B940F2022302224FF47E
:10073000800104900C48CDE900331023CDE902324A
:1007400005236A46CDE905134FF0407306A90F93C0
:1007500041F2883300F0A3FD003018BF012015B02E
:100760005DF804FB0120FAE75C0400202DE9F0436A
:100770007D4C9DB07D4B2046236000F074FC074605
:1007800008B10124ECE0FFF78BFE01250323C4E947
:1007900001351023E3604FF0006393FAA3F3B3FA3B
:1007A00083F34FF440762046E761013B2361402309
:1007B000C4E90567236200F0F7FB0028E1D14FF49C
:1007C00080774FF06609099041F2883205906946BA
:1007D0000D900697CDF80090CDE90700CDE90B000C
:1007E000204600F05CFC0028CBD14FF0990841F284
:1007F000883269462046CDF8008000F050FC002881
:10080000BFD141F28832694620460696CDF8009065
:1008100000F045FC0028B4D141F2883269462046F8
:10082000CDF8008000F03BFC0028AAD135231790BA
:10083000139041F288321B900EA914970E93CDE9C4
:100840001500CDE91900204600F029FC002898D1B8
:10085000FFF728FF002894D1B723149617900E9322
:1008600013901B90CDE91500CDE91900FFF746FF65
:10087000002886D141F288320EA9204600F00FFCF4
:1008800000287FF47EAFFFF70DFF00287FF479AFDB
:1008900085234FF440764FF04075ADF800000E937D
:1008A0000223139041F288320EA914961795CDE9D0
:1008B0001500CDE91830CDE91A002B4800F0EFFB08
:1008C00000287FF45EAF41F288326946264800F086
:1008D00085FC00287FF455AFFFF710FF0446002881
:1008E0007FF44FAF812341F288320EA91E480E9348
:1008F000BDF8003023F0F0031B051B0D43F400434B
:1009000043F08003ADF8003000F0C9FB00287FF40D
:1009100038AF41F288326946134800F003FC0028E2
:100920007FF42FAFED236A460EA90F480E934FF4C4
:1009300040631B9415934FF4405314961193052371
:10094000CDE9164513934FF000454FF08043CDE9B4
:100950000044CDE9195300F0F7FC002818BF01242A
:1009600020461DB0BDE8F0835C040020005000521A
:100970007047FEE7FEE7FEE7FEE770477047704707
:1009800000F092B81849194810B5D1F8883043F4EE
:100990007003C1F88830164B1A6842F001021A60E1
:1009A00000221A611C68204018609A61DA611A629C
:1009B0009A62DA621A635A639A63DA631A645A644F
:1009C000186820F4802018601A660A4B1B681B0CFC
:1009D0001B04B3F1005F02D2074B01221A604FF0F3
:1009E00000638B6010BD00BF00ED00E07FEDF6EA14
:1009F000004402580010005C08810051704700005C
:100A000038B50F4B0546187808B9012038BD4FF4AA
:100A10007A730C4AB3FBF0F31068B0FBF3F000F00C
:100A2000ADF804460028F0D10F2DEED80246294635
:100A30004FF0FF3000F062F8034B20461D60E5E701
:100A400008000020000000200C00002010B503204A
:100A500000F042F800F03CFF0F49104A8B69C3F3E5
:100A60000323D35C03F01F03D8400D4B18608B6940
:100A700003F00F03D35C03F01F03D840094B186049
:100A80000F20FFF7BDFF044618B9FFF7B7FF204658
:100A900010BD0124FBE700BF00440258201E0008DF
:100AA0000000002004000020034A044B11681B785A
:100AB0000B441360704700BFA8040020080000200A
:100AC000014B1868704700BFA8040020014B18684C
:100AD000000C70470010005C074A0002D36800F465
:100AE000E06023F4E0631B041B0C43F0BF6343F49A
:100AF00000330343D360704700ED00E0164B70B540
:100B0000DC684FF0FF36C4F30224C4F10705231D4F
:100B1000042D28BF0425062B06FA05F38CBF033CE1
:100B20000024002821EA030303FA04F306FA04F47C
:100B300022EA040443EA04034FEA0313DBB206DBB0
:100B400000F1604000F5614080F8003370BD00F0B6
:100B50000F00024A1354F9E700ED00E014ED00E045
:100B6000002808DB4209012300F01F0003FA00F00F
:100B7000014B43F82200704700E100E00138B0F17A
:100B8000807F0AD2064BF021064A5860002082F886
:100B90002310072298601A6070470120704700BF39
:100BA00010E000E000ED00E04FF0B04C00232DE934
:100BB000F74F724EE246DFF8D0B10A6832FA03F41A
:100BC00002D103B0BDE8F08F4FF0010E0EFA03FE24
:100BD0001EEA020200F0BD804C6824F01004022CD2
:100BE00014D14FEAD30803F007090F2500EB88085A
:100BF0004FEA8909D8F8204005FA09F524EA0505E5
:100C00000C6904FA09F42C43C8F820404FEA430861
:100C10004FF003094C6809FA08F9056804F0030469
:100C20006FEA090904FA08F409EA05052C4304608F
:100C30004D6825F01005013D012D11D88468CD685F
:100C400009EA040405FA08F525438560446824EAA6
:100C50000E0E4C68C4F300149C4044EA0E04446039
:100C6000C46809EA04098C6804FA08F444EA09042F
:100C7000C4604C68E4006CD5414D03F0030E4FF0A6
:100C80000F08D5F8F4404FEA8E0E44F00204C5F880
:100C9000F440D5F8F44023F0030505F1B04504F025
:100CA000020405F580650194019C08FA0EF4D5F85C
:100CB000089029EA0408334CA0424CD004F5806423
:100CC000A0424AD004F58064A04248D0584548D09C
:100CD00004F50064A04246D004F58064A04244D0EC
:100CE00004F58064A04242D004F58064A04240D064
:100CF00004F58064A0423ED004F58064A0420CBF9D
:100D000009240A2404FA0EF444EA0804AC60D5432A
:100D10004F683468FF034CBF14432C4034604F6865
:100D20007468BF034CBF14432C4074604F68DCF8F8
:100D30000040FF024CBF14432C40CAF800404F68EB
:100D4000DAF80440BF0254BF05EA04022243CCF89B
:100D50000420013331E70024D4E70124D2E7022440
:100D6000D0E70324CEE70424CCE70524CAE7062411
:100D7000C8E70724C6E70824C4E700BF800000587E
:100D80000044025800000258000C025838B5104CBC
:100D9000E36813F0040FE36805D103F00703181AA2
:100DA00018BF012038BD23F007031843E060FFF7A8
:100DB00087FE054663689B0401D50020F2E7FFF734
:100DC0007FFE401BB0F57A7FF4D90120EAE700BF2F
:100DD000004802584B6A2DE9F04733B1B2F1406F39
:100DE00003D08B6A0468013B23618B690C6A002B7A
:100DF00067D00568002C35D08B68EB61CC694B6AF5
:100E000005688F69D1F820C0D1F83480D1F810E09E
:100E10000E68D1E90BA9A4B144EA0A04144344EAD8
:100E2000090444EA08042343CC6843EA0E0343EA76
:100E30000C0323433B434C69334343EA84436B61D4
:100E40002AE04AEA0904144344EA0804234343EA33
:100E50000E0343EA0C033B4333434E6943EA8646A1
:100E60006E612CE04E69CC69D1F80090B604D1F8DF
:100E700024804F6BD1E90BECACB11C43CB6814431D
:100E800044EA090444EA080444EA0E0444EA0C046F
:100E90003C431C4334436C61B2F1406F0FD0036894
:100EA0004A689A610BE043EA0903134343EA0803E3
:100EB00043EA0E0343EA0C033B4333436B61BDE853
:100EC000F08744B303688C68DC61CC69D1F8248076
:100ED00005688E69D1F820C04B6BD1F810E0D1E9DC
:100EE0000B796CB13C43144344EA09042343CC68B6
:100EF00043EA080343EA0E0343EA0C0323439AE759
:100F000047EA09042243134343EA080343EA0E0372
:100F100043EA0C03A0E7CD694B6A7DB12B43CD6A50
:100F2000046813432B430D6B2B434D6B2B43CD6850
:100F30002B434D6943EA85436361ADE7002BBED087
:100F4000CC6A0068234313430A6B13434A6B134371
:100F50004A6943EA82434361B1E72DE9F041069DC6
:100F600004460F461646984621688A683A4214BFDE
:100F700001220022B24201D1002011E06B1CF4D00A
:100F8000FFF79EFDA0EB0800A84201D8002DEBD191
:100F90000423012084F84130636C43F0010363644F
:100FA000BDE8F0817047000037B50446FFF788FDC3
:100FB0000546002C4FD094F84030012B4DD0012332
:100FC00084F8403094F8412002F0FF033AB984F8E5
:100FD00040302046FFF7E6FF41F28833A3642068E3
:100FE000A1680268013922F4706242EA01222021DC
:100FF00002600022A36C204600932B46FFF7ADFF52
:1010000020BB2168E569E3680A682B43256A22F062
:101010007F422B43656822F0D00243EA0563134305
:101020000B602168D4E905324D681343226943EA15
:1010300002430B4A2A4013434B602268136843F073
:10104000010313600123606484F84130002384F8B5
:10105000403003B030BD0120FBE70220F9E700BFBC
:10106000FEF8E0FF704710B50446A0B190F840309C
:10107000012B12D00268012380F84030136823F05E
:1010800001031360FFF7EEFF0020606484F8410065
:1010900084F8400010BD0120FCE70220FAE72DE9AA
:1010A000F34704468A469146FFF70AFD94F840301C
:1010B0008046012B34D00123022784F8403094F875
:1010C0004160F6B29E4229D100220346CDF800903D
:1010D00020216264204684F84170FFF73EFF0546F8
:1010E000A8B9024651462046FFF774FEDAF82430CC
:1010F0005BB9CDF800904346324639462046FFF7AB
:101100002CFF054618B92368DF6084F8416000238E
:1011100084F84030284602B0BDE8F0873D46F6E747
:101120000225F7E72DE9F341044688461746FFF705
:10113000C7FC94F840300646012B4DD001232568AA
:1011400084F8403094F84100C0B2984242D1002364
:101150006364B8F1000F38D0122384F841302B6952
:101160000133E3622B69C4F824800133A3626B6905
:1011700023F040636B61E36A9BB900973346012219
:1011800002212046FFF7E9FE10B923680222DA6047
:10119000012384F84130002384F8403002B0BDE8D8
:1011A000F08100973346012204212046FFF7D5FE47
:1011B0000028EDD1636A1B7885F82030636A01331B
:1011C0006362E36A013BE362D5E7636C43F00803C3
:1011D0006364E0E70220DEE70220DFE72DE9F34168
:1011E000044617468846FFF76BFC25680646AA6941
:1011F00094F84030012B50D0012384F8403094F80B
:101200004100C0B2984246D100236364B8F1000F98
:101210003CD0222384F841302B690133A3632B692E
:10122000C4F83080013363636B6923F0406343F09B
:1012300080636B6123689A61A36B9BB90097334607
:10124000012202212046FFF788FE10B923680222FE
:10125000DA60012384F84130002384F8403002B082
:10126000BDE8F08100973346012206212046FFF7B2
:1012700074FE0028EDD195F82020236B1A70236BA3
:1012800001332363A36B013BA363D5E7636C43F096
:1012900008036364E0E70220DEE70220DFE72DE9D0
:1012A000F7430446984689461646FFF709FC94F82A
:1012B00040300746012B45D0012384F8403094F894
:1012C0004150EDB29D423BD142230022CDF8008037
:1012D0002021626484F8413003462046FFF73DFE3A
:1012E00040BB2368204632689A62236872685A625B
:1012F0002368B268DA62216833690A6843F48003BC
:1013000022F4400213434FF000620B604946F36839
:10131000C9F82830FFF75EFDCDF800803B462A462D
:1013200008212046FFF719FE20B923680822DA6059
:1013300084F84150002384F8403003B0BDE8F083C6
:101340000220F7E70220F8E7F7B5044617460E46F5
:10135000FFF7B6FB94F840200346012A36D001225D
:1013600084F8402094F84120012A2DD100228221C6
:101370002046626484F84110A16C00912021FFF79F
:10138000ECFD0546D0B922687968136823F008039C
:101390000B4313607B68082B0AD123683A681A63F1
:1013A00010222368DA602268136843F48013136004
:1013B0004FF0406231462046FFF70CFD002384F8D1
:1013C0004030284603B0F0BD0225F7E70225F8E7D4
:1013D000F8B5044608B9012090E00368DD075ED443
:1013E0002368980700F1AC802368DA0623D5AB4B5D
:1013F0001A69996A02F03802082A07D0182A40F0C0
:10140000008101F00302012A40F0FB801B68DB052C
:1014100002D5E369802BDED1FFF758FB41F20303CD
:101420009E4A9842216A00F2E580536823F0F8430F
:1014300043EA816353602368190700F11B81236825
:101440009A0600F1408123685D0722D5944D2B68F0
:1014500043F480732B60FFF733FB06462B68DA05F5
:1014600040F15681A2688D4B012A40F058811A6FD5
:1014700042F001021A67A368002B00F06781FFF7B2
:101480001FFB864D064641F288372B6F9B0740F1C4
:101490005681606A002840F0698100202EE07F4B71
:1014A0001A69996A02F03802102A05D0182A0AD15E
:1014B00001F00302022A06D11B68990390D56368E4
:1014C000002B8DD187E76268744BB2F5803F16D14F
:1014D0001A6842F480321A6063680BB3FFF7F0FABF
:1014E0006E4D064641F288372B689A033FF578AF78
:1014F000FFF7E6FA801BB842F6D90320F8BD3AB9E7
:101500001A6822F480321A601A6822F48022E2E714
:10151000B2F5A02F1A68F4D142F480221A60D7E7FE
:10152000FFF7CEFA5D4D064641F288372B689B03E4
:101530007FF556AFFFF7C4FA801BB842F6D9DCE757
:10154000564B1A69996A12F0380203D0182A1BD137
:101550008E0719D11B685D0703D5E368002B3FF4A4
:101560003AAFFFF7B3FA41F203034C4A98422169BC
:10157000536895BF23F47C3323F0FE4343EA0133E1
:1015800043EA016353602FE7444DE2682B680AB3D6
:1015900023F0190313432B60FFF792FA06462B68DA
:1015A000580711D5FFF792FA41F2030322699842D6
:1015B0006B6895BF23F47C3323F0FE4343EA023388
:1015C00043EA02636B600FE7FFF77AFA801B022899
:1015D000E5D992E723F001032B60FFF771FA064685
:1015E0002B6859077FF500AFFFF76AFA801B0228C6
:1015F000F6D982E7D36823F07C5343EA0163D360D2
:1016000019E7E369254D23B32B6843F080032B6072
:10161000FFF756FA06462B68DF050DD5FFF756FA99
:1016200041F20303226A98420CD86B6823F0F84316
:1016300043EA82636B60FEE6FFF742FA801B0228F2
:10164000E9D95AE7EB6823F07C5343EA0263EB6085
:10165000F1E62B6823F080032B60FFF731FA064692
:101660002B68D8057FF5E7AEFFF72AFA801B022822
:10167000F6D942E76369094DA3B16B6F43F00103EB
:101680006B67FFF71DFA06466B6F9B073FF5D7AEFA
:10169000FFF716FA801B0228F6D92EE700440258FD
:1016A000004802586B6F23F001036B67FFF708FADD
:1016B00006466B6F9F077FF5C2AEFFF701FA801BEE
:1016C0000228F6D919E7A369804D83B12B6843F44A
:1016D00080532B60FFF7F4F906462B6898043FF51A
:1016E000B2AEFFF7EDF9801B0228F6D905E72B68AB
:1016F00023F480532B60FFF7E3F906462B68990427
:101700007FF5A1AEFFF7DCF9801B0228F6D9F4E6DD
:10171000FFF7D6F9801B64287FF6A0AEEDE63AB954
:101720001A6F22F001021A671A6F22F00402A1E672
:10173000052A1A6FF5D142F004021A6797E6FFF7FF
:10174000BFF9801BB8427FF6A0AED6E6FFF7B8F926
:101750005E4D064641F288372B6F98077FF599AEAC
:10176000FFF7AEF9801BB842F6D9C6E6574D2B6994
:1017700003F03803182B7AD02B68022823F08073EB
:101780002B6067D1FFF79CF906462B6899015BD463
:10179000AB6AA26A23F47C7323F003031343E26A67
:1017A00043EA0213AB62636BA26B013B013A5B023B
:1017B00012049BB202F4FE021343226B013AC2F3FD
:1017C00008021343E26B013A120602F0FE42134391
:1017D0002B63EB6A23F00103EB626B6BA26C23F4C7
:1017E0007F4323F0F80343EAC2036B63EB6A226C86
:1017F00023F00C031343EB62EB6A626C23F00203E9
:10180000324C1343EB62EB6A43F48033EB62EB6AD6
:1018100043F40033EB62EB6A43F48023EB62EB6A40
:1018200043F00103EB622B6843F080732B60FFF7FA
:1018300047F9054623689A013FF52FAEFFF740F9B7
:10184000401B0228F6D958E6FFF73AF9801B022818
:101850009BD952E6FFF734F904462B689B017FF5CC
:101860001CAEFFF72DF9001B0228F6D945E601282A
:10187000AA6A2B6B3FF442AE02F00301A06A8142D8
:101880007FF4A9ADC2F30512E16A8A427FF4A3ADE9
:10189000226BC3F30801013A91427FF49CAD626B65
:1018A000C3F34621013A91427FF495ADA26BC3F395
:1018B0000641013A91427FF48EADE06BC3F30663BB
:1018C0000138181A18BF012018E600BF004402585A
:1018D000464B10B51A6902F03802102A00F08480D5
:1018E000182A0CD00AB1424810BD1A68414812F0BB
:1018F000200FF9D01B68C3F3C103D840F4E7996AFD
:10190000986ADA6AC0F305105C6B0028ECD007EE29
:10191000900A02F00102C4F3CC00B7EE006AF8EEC0
:10192000E76A424307EE902A01F00302012AFAEE29
:10193000E97A02D00FD3022A48D01B6BC3F3080305
:1019400007EE103AB8EEC77A77EE277A77EE867A06
:101950009FED296A37E01A68920627D51968254A4B
:10196000C1F3C1011B6BCA40C3F3080307EE102A81
:10197000F8EEC75A85EEA67A06EE903AF8EEE66AD9
:1019800076EEA77A77EE867A184B67EE877A1B6B2E
:10199000C3F34623013307EE103AF8EEC76A87EE29
:1019A000A67AFCEEC77A17EE900A9DE71B6BC3F38D
:1019B000080307EE103AB8EEC77A77EE277A77EE8B
:1019C000867A9FED0E6A86EE267ADDE71B6BC3F3FF
:1019D000080307EE103AB8EEC77A77EE277A77EE6B
:1019E000867A9FED076AEEE706487DE700440258D5
:1019F00000093D000090D0030024744A0024744C78
:101A000020BCBE4B40787D012DE9F0410D460446D7
:101A100010B90120BDE8F081884A136803F00F0374
:101A20008B42C0F0928023685E0700F19A802368A1
:101A300018070BD5824A6069D16901F070018842AC
:101A400004D9D36923F070030343D3612368D90613
:101A50000BD57B4AA069D16901F4E061884204D9C1
:101A6000D36923F4E0630343D36123689A060BD55B
:101A7000734AE069116A01F07001884204D9136A5F
:101A800023F070030343136223689B070BD56C4A52
:101A9000E068916901F00F01884204D9936923F04D
:101AA0000F03034393612368DF0768D423689E070D
:101AB00000F19B80614A136803F00F03AB4200F210
:101AC000A2802368580700F1AA80236819070BD564
:101AD0005B4A6069D16901F07001884204D2D36920
:101AE00023F070030343D3612368DA060BD5544A0D
:101AF000A069D16901F4E061884204D2D36923F47A
:101B0000E0630343D36123689B060BD54C4AE0692D
:101B1000116A01F07001884204D2136A23F0700345
:101B200003431362FFF7D4FE454B464A9B69C3F358
:101B30000323D35C03F01F03D840434B1860434B8F
:101B4000BDE8F0411868FEF75BBF136823F00F0390
:101B50000B431360136803F00F038B427FF459AFFC
:101B600061E7374A2069916901F0700188427FF688
:101B70005EAF936923F070030343936157E7304BE3
:101B8000A1689A6922F470620A439A6161681A68CE
:101B900002291DD112F4003F3FF43BAF1A6941F214
:101BA0008838274E22F007020A431A61FEF788FFA1
:101BB00007463369626803F03803B3EBC20F3FF4A2
:101BC00075AFFEF77DFFC01B4045F2D9032021E72A
:101BD000032902D112F0007FDEE7012902D112F4BD
:101BE000807FD9E712F0040FD6E7154AE0689169C3
:101BF00001F00F018842BFF45DAF936923F00F033A
:101C00000343936156E7136823F00F032B431360DC
:101C1000136803F00F03AB427FF4FBAE51E7084AB1
:101C20002069916901F070018842BFF44EAF936959
:101C300023F070030343936147E700BF0020005285
:101C400000440258201E0008000000200C00002064
:101C5000DFF834D0002103E00C4B5B5843500431D3
:101C60000B480C4B42189A42F6D30B4A02E0002371
:101C700042F8043B094B9A42F9D3FEF783FE00F089
:101C800011F8FEF729FB704700000220401E0008F3
:101C9000000000203C0400203C040020D004002070
:101CA000FEE7000070B50D4E0D4D761BB61006D048
:101CB0000024013455F8043B9847A642F9D1094E57
:101CC000094D761B00F0A0F8B61006D000240134B0
:101CD00055F8043B9847A642F9D170BD341E000860
:101CE000341E00083C1E0008341E0008024B13B1CD
:101CF000024800F005B87047000000000D1D000804
:101D0000002301461A46184600F01EB838B50A4CA2
:101D10000A4D641BA4100AD004F18043013B05EB7B
:101D20008305013C55F804399847002CF9D1BDE8EA
:101D3000384000F06FB800BF401E00083C1E00088D
:101D4000704700BF704700BF2DE9F8432B4D064692
:101D5000286898460F469146FFF7F2FF284B1C680B
:101D6000D4F84831002B3DD05A681F2A0DDC02F10F
:101D7000010C16BB0232C3F804C0286843F8227075
:101D8000FFF7E0FF0020BDE8F8831E4B7BB34FF464
:101D9000C870AFF30080034648B3D4F8482100214F
:101DA000C0E900214FF0010CC4F848010A46C0F810
:101DB0008811C0F88C11002EDCD003EB82010124C5
:101DC000C1F88890D3F8880194402043022EC3F8CC
:101DD0008801C1F80881CDD1D3F88C110C43C3F828
:101DE0008C41C7E704F5A673C4F84831BCE72868FE
:101DF000FFF7A8FF4FF0FF30C5E700BF3804002011
:101E0000301E000800000000F8B500BFF8BC08BC98
:101E10009E467047F8B500BFF8BC08BC9E467047A8
:101E20000000000001020304010203040607080980
:101E300010000020ED1C0008BD02000899020008F7
:101E40000090D0030090D0030100000010000000BB
:101E500000000000FC02002064030020CC030020EE
:101E60000000000000000000000000000000000072
:101E70000000000000000000000000000000000062
:101E80000000000000000000000000000000000052
:101E90000000000000000000000000000000000042
:101EA0000000000000000000000000000000000032
:101EB0000000000000000000000000000000000022
:101EC0000000000000000000000000000000000012
:101ED0000000000000000000000000000000000002
:101EE00000000000000000000000000000000000F2
:101EF00000000000000000000100000000000000E1
:101F00000E33CDAB34126DE6ECDE05000B000000A5
:101F100000000000000000000000000000000000C1
:101F200000000000000000000000000000000000B1
:101F300000000000000000000000000000000000A1
:101F40000000000000000000000000000000000091
:0C2270000000000000000000AC04002092
:0200000490006A
:100000000000082405C70090D7480090D948009008
:10001000DB480090DD480090DF48009000000000C1
:1000200000000000000000000000000071B8009017
:10003000E14800900000000001B9009005B2009076
:1000400055C7009055C7009055C7009055C7009000
:1000500055C7009055C7009055C7009055C70090F0
:1000600055C7009055C7009055C7009055C70090E0
:1000700055C7009055C7009055C7009055C70090D0
:1000800055C7009055C7009055C7009055C70090C0
:1000900055C7009055C7009055C7009055C70090B0
:1000A00055C7009055C7009055C7009055C70090A0
:1000B00055C7009055C7009055C7009055C7009090
:1000C00055C7009055C7009055C7009055C7009080
:1000D00055C7009055C7009055C7009055C7009070
:1000E00055C7009055C700900000000055C700900C
:1000F00055C7009055C7009055C7009055C7009050
:1001000055C7009055C7009055C7009055C700903F
:1001100055C7009055C70090E548009055C700901E
:1001200055C7009055C7009055C7009055C700901F
:1001300055C7009055C7009055C7009055C700900F
:1001400000000000000000000000000000000000AF
:1001500055C7009055C7009055C7009055C70090EF
:1001600055C7009055C7009055C7009055C70090DF
:1001700055C7009055C7009055C7009055C70090CF
:1001800055C7009055C7009055C7009055C70090BF
:1001900055C7009055C7009055C7009055C70090AF
:1001A000F148009055C70090FD48009055C7009059
:1001B00055C7009055C7009055C7009055C700908F
:1001C00055C7009055C7009055C7009055C700907F
:1001D00055C7009055C7009055C7009055C700906F
:1001E00055C7009055C7009055C7009055C700905F
:1001F00055C7009055C7009055C7009055C700904F
:1002000055C7009055C7009055C7009055C700903E
:1002100055C7009055C7009055C7009055C700902E
:1002200055C7009009490090154900900000000052
:1002300055C7009055C700900000000055C70090BA
:1002400055C7009055C7009055C7009055C70090FE
:1002500055C7009055C7009055C7009055C70090EE
:1002600055C7009055C7009055C7009055C70090DE
:1002700055C7009055C7009055C70090000000007A
:1002800055C7009055C7009055C70090000000006A
:080290000000000055C70090BA
:1002A00010B5054C237833B9044B13B10448AFF3B0
:1002B00000800123237010BD800300240000000093
:1002C0001C7F029008B5034B1BB103490348AFF3F1
:1002D000008008BD00000000840300241C7F029001
:1002E0007BB972B90029BEBF00204FF0004106E083
:1002F00008BF00281CBF6FF000414FF0FF3000F036
:10030000A5B9ADF1080C6DE904CE002909DB002B7D
:100310001ADB00F035F8DDF804E0DDE9022304B073
:100320007047404261EB4101002B1BDB00F028F8D5
:10033000DDF804E0DDE9022304B0404261EB410155
:10034000524263EB43037047524263EB430300F0B6
:1003500017F8DDF804E0DDE9022304B0404261EB68
:1003600041017047524263EB430300F009F8DDF8A6
:1003700004E0DDE9022304B0524263EB430370471B
:100380002DE9F047089E04468846002B4BD18A424F
:10039000154667D9B2FA82F24AB1C2F1200701FAD2
:1003A00002F320FA07F7954047EA030894404FEA22
:1003B000154E230CB8FBFEF71FFA85FC0EFB1788C1
:1003C00043EA084307FB0CF1994209D9EB1807F1FE
:1003D000FF3080F01B81994240F21881023F2B448C
:1003E0005B1AA4B2B3FBFEF00EFB103344EA0344E5
:1003F00000FB0CFCA44509D92C1900F1FF3380F057
:100400000781A44540F2048102382C4440EA0740A9
:10041000A4EB0C0400271EB1D4400023C6E900431E
:100420003946BDE8F0878B4209D9002E00F0EB80F9
:100430000027C6E9000138463946BDE8F087B3FA1F
:1004400083F7002F47D18B4202D3824200F2FA8019
:10045000841A61EB030301209846002EE0D0C6E920
:100460000048DDE702B9FFDEB2FA82F2002A40F06E
:100470008F80491B4FEA154E1FFA85F80127B1FB03
:10048000FEFC230C0EFB1C1143EA014308FB0CF19C
:10049000994207D9EB180CF1FF3002D2994200F2D1
:1004A000CD808446591AA3B2B1FBFEF00EFB1014A6
:1004B00043EA044408FB00F8A04507D92C1900F1D1
:1004C000FF3302D2A04500F2B6801846A4EB080420
:1004D00040EA0C409FE7C7F1200CBB4022FA0CFE1B
:1004E0004EEA030E01FA07F420FA0CF521FA0CF398
:1004F0004FEA1E482543B3FBF8F92C0C08FB1933CF
:100500001FFA8EFA44EA034309FB0AF49C4202FAFA
:1005100007F200FA07F10BD91EEB030309F1FF30D4
:1005200080F087809C4240F28480A9F102097344E4
:100530001B1BADB2B3FBF8F008FB103345EA0344D4
:1005400000FB0AFAA24508D91EEB040400F1FF33B0
:100550006BD2A24569D90238744440EA0940A0FB35
:100560000289A4EB0A044C45C2464B4654D351D0F1
:10057000002E69D0B1EB0A0564EB030404FA0CFC0D
:10058000FD40FC404CEA0505C6E90054002747E75A
:10059000C2F1200320FA03F7954001FA02F021FA94
:1005A00003F34FEA154E3843010CB3FBFEF71FFA75
:1005B00085F80EFB173341EA034107FB08F38B4232
:1005C00004FA02F407D9691807F1FF3C2FD28B42D5
:1005D0002DD9023F2944CB1A81B2B3FBFEF00EFBAA
:1005E000103341EA034100FB08F38B4207D9691835
:1005F00000F1FF3C17D28B4215D902382944C91AA1
:1006000040EA07473BE73746304609E70746E7E653
:100610001846FBE64145ABD2B8EB020A69EB0E0285
:1006200001381346A4E76046E9E7184695E76746B0
:10063000D1E781467CE702382C4447E7ACF1020C55
:100640002B442FE7384608E73746E9E6704700BFF6
:1006500001F0FF01102A2BDB10F0070F08D010F873
:10066000013B013A8B422DD010F0070F42B3F6D177
:10067000F0B441EA012141EA014122F007047FF090
:1006800000070023F0E80256083C85EA010586EAE7
:10069000010685FA47F5A3FA87F586FA47F6A5FA23
:1006A00087F68EB9EED1F0BC01F0FF0102F007022F
:1006B00032B110F8013B013A83EA010313B1F8D1DA
:1006C0000020704701387047002D06BF35460338BB
:1006D000073815F0010F07D1013015F4807F02BFF4
:1006E000013015F4C03F0130F0BC0138704700BF45
:1006F00090F8252012B103685B6918477047818024
:100700007047C180704701817047418170477047D1
:100710007047704770477047C388D21A8388C91AD8
:10072000036812B209B210B45DF8044B5B6D184750
:10073000806A70477047704770477047034B10B529
:100740000446036000F0A0FA204610BDB07F02907E
:1007500010B50446FFF7F2FF41F63071204625F050
:100760005FFB204610BD000010B5044600F0A2FB60
:10077000014B2046236010BDB07F029000F001BA0B
:1007800070477047704704387047704710B504468B
:10079000102125F045FB204610BDA0F10400F5E72F
:1007A0000022C1608260044A10B502F108042032C0
:1007B0000460426010BD00BFDC7F029070470438C7
:1007C0007047704710B50446102125F029FB2046DC
:1007D00010BDA0F10400F5E7C06800F03BB8A0F13F
:1007E0000400FFF7F9BF00000022C1608260044AE4
:1007F00010B502F1080424320460426010BD00BF4D
:100800000C80029070470000034B10B50446036053
:1008100000F09AFD204610BD4C80029010B50446B1
:10082000FFF7F2FF41F63471204625F0F9FA204631
:1008300010BD000010B5044600F0E4FD034B00229B
:100840002046236041F63073E25010BD4C80029088
:1008500000F03CBDFDEEC07A074A282110B50446E1
:1008600017EE903A00F52C7016F0CEF904F5F07002
:10087000BDE8104013F009BE4080029038B5002456
:100880000546042104602246012009F077F9054B52
:10089000224604211860052009F070F9024B186007
:1008A000284638BDA00300249C03002470B5104BDB
:1008B0000546104C00221868214609F02DFB01283E
:1008C00005D1286894ED000A03689B6898470A4B95
:1008D0000A220A4C1868214609F01EFB012806D19D
:1008E000286821680368BDE87040DB68184770BD60
:1008F000A0030024A80300249C030024A4030024D4
:1009000070470000034B10B50446036000F088FFF9
:10091000204610BD8080029010B50446FFF7F2FF1C
:100920004FF4FC51204625F07BFA204610BD000014
:1009300010B5044600F0A4FF074B41F67472022183
:10094000204623600023A35041F67872A15041F65F
:100950007C72A35010BD00BF8080029010B5044689
:1009600000F03AFF41F674730222E35807EE903A22
:10097000B4F9BA3293FBF2F3F8EEE77AC4EDB87A41
:1009800007EE903AB4F9B832F8EEE77A93FBF2F357
:1009900007EE103AC4EDBA7AB8EEC77A84EDB97AA8
:1009A00010BD41F6747141F6787210B443584FF49B
:1009B000B47482581A4492FBF4F304FB132307EE39
:1009C000903A435000F52C70F8EEE77AC0ED0C7ABF
:1009D0005DF8044B13F059BD38B5094A04460D467D
:1009E0000B4600F53D70282116F00EF941F678739C
:1009F00004F1F000E550BDE8384013F046BD00BFFB
:100A000040800290704704387047704710B5044624
:100A1000102125F005FA204610BDA0F10400F5E7ED
:100A2000C068FFF7D9BFA0F10400FFF7F9BF0000CD
:100A30000022C1608260044A10B502F10804243229
:100A40000460426010BD00BFAC800290704700F5AA
:100A500098730868496803C37047704701F0D4B9B8
:100A600010B504464FF4AE7125F0DAF9204610BDFA
:100A700010B50446D0F85801FFF718FF2046BDE82E
:100A8000104012F00BBD10B50446D0F8400158B12B
:100A90000368DB68984738B1D4F8400103689B6865
:100AA00098470023C4F8403110BD000010B504463B
:100AB00001F06EF9014B2046236010BDE8800290E2
:100AC000002070474FF6FF7383814FF0FF330362BE
:100AD0001368C3611060704790F825201AB190F830
:100AE000242002B11860704770477047704730B5D6
:100AF00085B00368044601816D460146D3F8843011
:100B00003C342846984795E8070084E8070005B07C
:100B100030BD30B585B00368044641816D4601465D
:100B2000D3F884303C342846984795E8070084E899
:100B3000070005B030BD0022028042808280C28062
:100B4000704780F83610704770B503680446154644
:100B50001B6B98472368294620465B6EBDE87040B2
:100B600018470020704708B5FFF7C2FD08BD806C2C
:100B7000704700207047B1F904308380012070472E
:100B80007047704790F82C302BB1C26EC26523B10C
:100B9000436F03667047826EF8E7036FF9E77047AB
:100BA0007047704730B4C568034644686A10ED0763
:100BB0009B6804EB020048BFA25830BC48BFD35822
:100BC000184743682BB183682BB9C06800F0010057
:100BD0007047184670470120704790F82D3080F814
:100BE0005A30704710B50446082125F019F92046FF
:100BF00010BD10B50446782125F012F9204610BD2D
:100C000010B504464C2125F00BF9204610BD10B557
:100C10000446102125F004F9204610BD70B5036884
:100C200004468DB25E6B114B1B682BB9104B6C21C7
:100C3000104A114826F07CF91049828D09889142AA
:100C400003D80F4B6D210B4AF3E713F812200D4B1D
:100C50001B6853F8220003681B6B9847291A334618
:100C6000204609B2BDE87040184700BFD8310224C1
:100C70006583029095840290A7830290DC31022460
:100C8000E8830290E0310224034B10B50446036070
:100C900010F06EFE204610BD30840290064B10B559
:100CA0000446036010F064FE41F63071204625F0E2
:100CB000B7F8204610BD00BF3084029010B504463E
:100CC000006B50B10368DB68984730B1206B214658
:100CD0000368BDE810409B68184710BD0B7970B5DC
:100CE00004460E4690F82C5053B955B13379012B78
:100CF00017D123682046D3F88830BDE870401847E4
:100D00007DB1B3FA83F320465B0984F82C30236865
:100D1000D3F88C309847236820465B699847002DAC
:100D2000E4D170BD38B500F1F00304460D46994298
:100D300003D112F031FB01F087F804F5B474A54239
:100D400005D112F029FBBDE8384001F05DB838BD8F
:100D500000224FF0FF318260C0E90021704700009F
:100D60000A4A026000228280C2800281428182811E
:100D7000C28102824282C2610284428480F82420BD
:100D8000C0E90522012280F82520704788B2029030
:100D900070B50368044615461B6B984723682946BF
:100DA00020465B6BBDE87040184770B504461E4690
:100DB000BDF91050FFF7ECFF2368314620469A6BCF
:100DC0009047236829462046DB6BBDE870401847F2
:100DD00010B504462622002126F025F92046FFF70B
:100DE000BFFF044B20462360FF2384F826300023F6
:100DF000A36210BD7CB00290002370B583800646CC
:100E0000104B114D03602A6892F8581009B1D06C4C
:100E100000B990680368DB6A98472B68B0FA80F4E1
:100E2000D86C640928B10368DB6A9847002808BFBA
:100E300001242CB9054B2C21054A064826F078F8E8
:100E4000304670BDDC81029080310224AB8202907A
:100E50005C8402900983029070B50446FFF780FF1E
:100E6000FF230025264684F82D300123A56284F84F
:100E700024300E4B84F82C50256346F8343B304622
:100E8000FFF7A6FF0A4B2A462946636330462566CC
:100E9000A4F86450C4E91A55C4E91C55FFF778FF5B
:100EA000204631460BF08EFC204670BDFC8102903E
:100EB00050B102902DE9F04F04468FB0002514F098
:100EC00009FAA246CF4B4FF6FF780EAE04F16C093B
:100ED00004F19807E56304F5197B4AF8403B504656
:100EE000FFF776FF26F8088D484631460EF0FAFDEA
:100EF00031463846ADF830800EF0F4FD04F1C403FD
:100F00003146ADF83080184603930EF0EBFD04F146
:100F1000F00318460493FFF79FFF04F5B4731846D7
:100F20000593FFF799FF04F5F073184602930EF04E
:100F3000A1FB04F5147318460793FFF75DFFB24B4E
:100F400029462622C4F850322433C4F85C5258464D
:100F5000C4F8583226F067F85846FFF701FFAB4B4C
:100F6000A4F890824FF4E151C4F88C324FF47F031F
:100F7000C4F8945204F54070C4F89832A44B84F835
:100F80009C52C4F8643204F5F95384F89D520693D8
:100F9000069AA04BA4F8A052A4F8A252A4F8A482E6
:100FA000A4F8A68204F10408C4F8A852C4F8AC520C
:100FB000136041F628735460974AE25041F62C734F
:100FC000E55010F0CBFC4FF488732A462946504672
:100FD00000934FF4F073FFF7E8FE4FF07F43514664
:100FE0004046A3664FF0380A0BF0ECFB032348465B
:100FF0003146ADF830300FF0BFFDCE223C234846DD
:10100000CDF800A09521FFF7D0FE294648460EF006
:1010100024FD6FF069034946404684F894304FF050
:1010200005090BF0CFFB022338463146ADF83030CE
:101030000FF0A2FD3C23CE223846CDF800A0D221ED
:10104000FFF7B3FE294638460EF007FD3946404605
:1010500032270BF0B7FB31460398ADF830500FF054
:101060008BFDCE224F23CDF800A04FF4877103985B
:10107000FFF79BFE294603980EF0EFFC6FF0690323
:101080000399404684F8EC300BF09CFB2A46294635
:101090003B4604F592700097FFF787FEDFF8A0A1AA
:1010A0005E4A5F495F4BC4F85C21C4F86411C4F820
:1010B00058310498A4F85491C4F860A1FFF762FD78
:1010C000D4F8F03084F81D510498D3F89030984744
:1010D00006983B46D422C4F820014FF48E71049840
:1010E0000097FFF762FE049940460BF06BFB2A461F
:1010F00029463B4604F5CE700097FFF756FE474A57
:101100004749484BC4F8D421C4F8DC11C4F8D031A5
:101110000598A4F8CC91C4F8D8A1FFF733FDD4F812
:10112000683184F895510598D3F890309847069B1C
:10113000D1229A21C4F898313B4605980097FFF7D1
:1011400034FE05994046314D0BF03CFB31234FF402
:101150008372D82102980097FFF727FE4FF0FF33E4
:10116000A0220298C4F85C32A4F860321146079BB2
:10117000C4F808320EF094FBA0224FF43E610298AE
:101180000EF099FBD4F81C32402B05D04023029876
:10119000C4F81C320EF08EFA002102980EF096FB75
:1011A0000299404608AF0BF00DFB0022584611464D
:1011B000FFF7EEFD4FF0FF3338465946C4F894323E
:1011C0000023A4F89832D4F86432D3F884309847D6
:1011D0000BF13C0397E8070083E80700124B04F586
:1011E0002C771B682BB9114B6021114A114825F04F
:1011F0009FFE114B1B88032B24D8104B61210C4AF6
:10120000F4E700BF308402906CAD02903C81029004
:101210004C81029098820290250D0090CC9900FF9D
:10122000996633FF996600FFD831022465830290E6
:10123000D0840290A7830290DC310224E8830290DC
:10124000663300FF0F4B0321186801F065FA0E4A60
:1012500003462821384615F0D7FC5846C4F8AC722E
:101260000EF0F4FE042331465846ADF834300C95A8
:101270000EF00CFF404659460BF0A4FA20460FB082
:10128000BDE8F08FE4310224A882029070B50D7998
:10129000044690F82C303DB93BB123682046D3F882
:1012A0008830BDE8704018477BB1B5FA85F3204619
:1012B0005B0984F82C302368D3F88C309847236876
:1012C00020465B699847002DE7D070BD704790F8C5
:1012D0002C302BB1C26EC26523B1436F03667047D9
:1012E000826EF8E7036FF9E77047704730B4C5685E
:1012F000034644686A10ED079B6804EB020048BF90
:10130000A25830BC48BFD358184743682BB18368F4
:101310002BB9C06800F001007047184670470120E3
:10132000704790F82D3080F85A30704710B5044659
:10133000782124F075FD204610BD10B5044610211B
:1013400024F06EFD204610BD034B10B5044603602B
:1013500010F00EFB204610BDC4850290064B10B560
:101360000446036010F004FB41F63071204624F07F
:1013700057FD204610BD00BFC485029038B500F16E
:10138000F00304460D46994203D112F005F800F02F
:101390004BFD04F5B474A54205D111F0FDFFBDE885
:1013A000384000F051BD38BD70B50446FFF7D8FC99
:1013B000FF230025264684F82D300123A56284F8FA
:1013C00024300E4B84F82C50256346F8343B3046CD
:1013D000FFF7FEFC0A4B2A46294663633046256622
:1013E000A4F86450C4E91A55C4E91C55FFF7D0FCB1
:1013F000204631460BF0E6F9204670BD108502907C
:1014000050B102902DE9F04F04468FB0002513F043
:1014100061FFA346B64B4FF6FF780EAF04F16C0A9E
:1014200004F19809E56304F1C4064BF8403B5846C3
:10143000FFF7CEFC27F8088D504639460EF052FBD8
:1014400039464846ADF830800EF04CFB3946304600
:10145000ADF830800EF046FB04F1F003184604931B
:10146000FFF7A2FF04F5B47318460593FFF79CFF3E
:1014700004F5F073294626221846029325F0D3FD81
:101480000298FFF76DFC9B4BA4F80C82C4F808325D
:101490004FF47F03C4F81052C4F81432964B84F80A
:1014A0001852C4F8E03104F50B7384F81952A4F80B
:1014B0001C521846A4F81E52A4F82082A4F82282D6
:1014C00004F10408C4F82452C4F8285203930EF01F
:1014D000D1F804F5277318460793FFF78DFC874B67
:1014E000C4F8A8524FF4E151C4F89C32243304F5F7
:1014F0004070C4F8A43204F5F9530693069A804B61
:101500005460136041F628737E4AE25041F62C7312
:10151000E55010F023FA4FF488732A4629465846BE
:1015200000934FF4F073FFF740FC4FF07F435946B0
:101530004046A3664FF0380B0BF044F903235046A6
:101540003946ADF830300FF017FBCE223C23504621
:10155000CDF800B09521FFF728FC294650460EF043
:101560007CFA514640464FF0960A0BF02BF90223C5
:1015700048463946ADF830300FF0FEFA3C23CE2213
:101580004846CDF800B0D221FFF70FFC2946484667
:101590000EF063FA494684F8C0A040460BF012F9F9
:1015A00030463946ADF830500FF0E6FA4F23CE22E0
:1015B0003046CDF800B04FF48771FFF7F6FB2946AF
:1015C00030464FF005090EF048FA3146322684F8CD
:1015D000ECA04046DFF850A10BF0F4F829462A466B
:1015E000334604F592700096FFF7DFFBDFF83CB15D
:1015F000454A464BC4F85C21C4F85831C4F864A18C
:101600000498A4F85491C4F860B1FFF760FED4F8D0
:10161000F03084F81D510498D3F89030984706991B
:101620003346D122C4F82011D72104980096FFF741
:10163000BCFB049940460BF0C5F829462A463346C0
:1016400004F5CE700096FFF7B0FB2F4A2F4BC4F87D
:10165000D421C4F8D031C4F8DCA14FF0FF3A05988A
:10166000A4F8CC91C4F8D8B1FFF731FED4F86831B2
:1016700084F895510598D3F890309847069BD1226D
:101680004FF48E71C4F89831334605980096FFF7F1
:101690008CFB059940460BF095F82A46294602989E
:1016A000FFF776FBA4F81452D4F8E03108ADC4F883
:1016B00010A22846D3F884300299984704F507739E
:1016C00095E8070083E80700114B04F52C751B68AB
:1016D0002BB9104B6021104A104825F029FC104B03
:1016E0001B88052B24D80F4B61210B4AF4E700BF60
:1016F000C48502903C8102904C8102906CAD0290B6
:10170000AC8502907D130090CC9900FF996600FF94
:10171000D831022465830290F0850290A78302905D
:10172000DC310224E8830290996633FF663300FFC0
:10173000264B4946186800F0EFFF254A034628214A
:10174000284615F061FA0298C4F828520EF07EFC83
:10175000204B394602980C930623ADF834300EF036
:1017600095FC029940460BF02DF831234FF483721B
:101770009B2103980096FFF718FB079BA022039874
:10178000C4F854321146C4F8A8A2A4F8ACA20EF0D2
:1017900087F8A0224FF43E6103980EF08CF8D4F83D
:1017A0006832402B05D040230398C4F868320DF00E
:1017B00081FF039800210EF089F8404603990BF051
:1017C00001F820460FB0BDE8F08F00BFE4310224DD
:1017D000A88202903C8102907047704730B4C5687F
:1017E000034644686A10ED079B6804EB020048BF9B
:1017F000A25830BC48BFD358184743682BB1836800
:101800002BB9C06800F001007047184670470120EE
:10181000704710B50446102124F002FB204610BD8D
:10182000034B10B50446036010F0A2F8204610BD2B
:1018300048860290064B10B50446036010F098F8F5
:1018400041F67471204624F0EBFA204610BD00BF2B
:101850004886029038B500F5E07304460D4699427B
:1018600003D111F099FD00F0CFFA04F50E74A542F2
:1018700005D111F091FDBDE8384000F0D5BA38BD72
:101880002DE9F04F04468FB0002613F023FDA24649
:101890008B4B04F16C05E6634AF8403B5046FFF77A
:1018A00097FA28460DF0E6FE04F1DC0304F1F00798
:1018B00004F59E7918460793FFF79EFA814B31464F
:1018C0002622C4F8DC302433C4F8E8603846C4F873
:1018D000E43004F5B47825F0A6FB3846FFF740FA6B
:1018E0004FF47F02784B4846C4F8242104F5CA7BA4
:1018F000764AC4F818314FF6FF73C4F8F0200EAAE8
:10190000A4F81C3122F8083D1146C4F8206184F87F
:10191000286184F82961A4F82C61A4F82E61A4F848
:101920003031A4F83231C4F83461C4F8386104931A
:1019300003920EF0D7F8039A4046049B1146ADF887
:1019400030300EF0CFF8039A5846049B1146ADF89C
:10195000303006930EF0C6F804F5E0731846039392
:10196000FFF77AFA04F50E7318460493FFF774FA3A
:1019700004F52C73314626221846059325F053FBB7
:101980000598FFF7EDF9069B514A4FF4E151A4F891
:10199000D6324FF07E53C4F8B02204F55170C4F82B
:1019A000D832C4F8DC320023C4F8E032C4F8E432A0
:1019B000C4F8E832C4F8EC32C4F8F03241F664738B
:1019C000E2180692434AE250069B434A5C6041F6A5
:1019D0006C73E25041F67073E6500FF0BFFF4FF4A6
:1019E000887332463146009350464FF4F073261DFB
:1019F000FFF7DBF94FF07F4351463046A3660AF00C
:101A0000E1FE32234FF483724FF48F710093284626
:101A10003123FFF7CAF94FF0FF33A0222846C4F85C
:101A2000E830A4F8EC301146079BC4F894300DF070
:101A300037FFA0224FF43E6128460DF03CFFD4F85A
:101A4000A830402B05D040232846C4F8A8300DF01C
:101A500031FE284600210DF039FF294630460DF1B0
:101A6000200A0AF0AFFE0022384600251146FFF793
:101A70008FF94FF0FF335046A4F82451C4F82031B9
:101A80003946D4F8F030D3F88430984707F13C0356
:101A90009AE8070083E80700104B04F53D7A1B68BD
:101AA0002BB90F4B60210F4A0F4825F041FA0F4B1D
:101AB0001B88012B1ED80E4B61210A4AF4E700BF98
:101AC000488602906CAD02903C8102904C8102905D
:101AD000E4B002903086029055180090D83102246C
:101AE0006583029074860290A7830290DC31022401
:101AF000E8830290754B0121186800F00DFE744ACE
:101B000003462821504615F07FF8C4F838A138461E
:101B10004FF0020A0EF09AFA6E4B0CA938460C935D
:101B2000ADF834A00EF0B2FA394630460AF04AFE5B
:101B3000382703230CA94846ADF830300FF01CF8C5
:101B4000CE2200973C2348469521FFF72EF92946DF
:101B500048460DF082FF6FF069034946304684F82D
:101B600064310AF02FFE0CA94046ADF830A00FF00A
:101B700003F8CE2200973C234046D221FFF715F907
:101B800029464046DFF858A10DF067FF6FF0690362
:101B90004146304684F890310AF014FE0CA95846AC
:101BA000ADF830500EF0E8FF4F23CE220097584694
:101BB0004FF487713227FFF7F8F8294658460DF0A1
:101BC0004CFF594630464FF0050B0AF0FBFD2A4604
:101BD00029463B4604F5FA700097FFF7E6F8DFF870
:101BE0000491DFF804813C4B0398C4F83432A4F824
:101BF00024B2C4F828A2C4F82C92C4F83082FEF7AC
:101C0000C1FFD4F8C03184F8ED510398D3F8903077
:101C10009847069A3B460398C4F8F0219B21D122AD
:101C20000097FFF7C2F8039930460AF0CBFD2A4629
:101C300029463B4604F51B700097FFF7B6F8264B84
:101C40000498C4F8AC32A4F89CB2C4F8A0A2C4F8BA
:101C5000A492C4F8A882FEF795FFD4F8383284F82D
:101C600065520498D3F890309847069BD122049887
:101C7000C4F86832D8213B460097FFF796F80499DC
:101C800030460AF09FFD294605980EF02DFB98235B
:101C9000142205980093A421FFF787F80F4B3046D4
:101CA0000599C4F8D832C4F8DC320023C4F8EC3209
:101CB000C4F8F032C4F8E432C4F8E832C4F8E032D0
:101CC0000AF080FD20460FB0BDE8F08FE431022419
:101CD000A88202903C810290996633FFB81E053EAF
:101CE000996600FFCC9900FF663300FF704770478C
:101CF0007047416070477047012303727047704717
:101D0000704710B4C468034641686210E4079B68DA
:101D100001EB020048BF8A585DF8044B48BFD35816
:101D2000184743682BB183682BB9C06800F00100E5
:101D30007047184670470120704710B504460C21C3
:101D400024F06EF8204610BD10B504464FF4AE7175
:101D500024F066F8204610BD10B50446102124F08A
:101D60005FF8204610BD10B511F016FB0368BDE802
:101D70001040DB6B18470000044B1B6893F8582099
:101D80000AB1D86C00B99868704700BF803102244E
:101D9000F8B5044617460E4611F0C4FB164B002555
:101DA000C4F854711C602946144BC4F83C5123609C
:101DB000134BC4F84051C4F84431124BC4F8485195
:101DC0001868C4F84C51C4F85051C4F858610368FD
:101DD0009B689847284600F065FCFFF7CDFF1BF095
:101DE00014FFFFF7C9FF1BF08BFFFFF7C5FF1BF0C8
:101DF00093FF2046F8BD00BFD4310224CC86029068
:101E0000B486029080310224064BC0F84801C0F825
:101E10004C310023C0F8503100F5A273C0F84031B6
:101E2000704700BFB11F0090064BC0F84801C0F8D2
:101E30004C310023C0F8503100F5A273C0F8403196
:101E4000704700BF19210090064BC0F84801C0F848
:101E50004C310023C0F8503100F5A273C0F8403176
:101E6000704700BF8122009003685B6A184700003A
:101E70002DE9F0470746906899468846036815465D
:101E8000DDF820A01B6A984741F63373984205D8C5
:101E9000414BA321414A424825F04AF8686803684B
:101EA0001B6A98470F2803D83E4BA4213B4AF2E710
:101EB000E86803681B6A98470B2803D83A4BA521AA
:101EC000364AE8E711F068FA043011F08AFAD9F8D6
:101ED000000010B10368DB689847D9F8000010B122
:101EE00003681B689847386810B103685B699847B6
:101EF000D8F8000010B103685B689847386810B1E3
:101F000003681B689847D8F8000010B103689B6805
:101F100098470021E868FFF7A7FF044620B1002397
:101F200043600372214B0360A868002103685B6A69
:101F30009847064608B1FEF77DFC686800210368F3
:101F40005B6A9847054610B13146FEF74DFCC9F86B
:101F50000040C8F800503E60E5B12B1DCAF80030C3
:101F60003046C5F808A03368F563DB6898472B68EE
:101F700028461B6898472146304613F057FB2368D4
:101F800020461B699847236820465B699847284686
:101F9000BDE8F0872B46E1E73C870290518902902B
:101FA000CA8702900B880290AE8802902087029028
:101FB00007B5D0F8583100F59E710093044BD0F866
:101FC00054210448FFF754FF03B05DF804FB00BF41
:101FD000C8310224C43102242DE9F0470746906835
:101FE0009946884603681546DDF820A01B6A984785
:101FF00041F62F73984205D8414BA321414A4248EC
:1020000024F096FF686803681B6A98470F2803D876
:102010003E4BA4213B4AF2E7E86803681B6A9847F5
:102020000B2803D83A4BA521364AE8E711F0B4F95A
:10203000043011F0D6F9D9F8000010B10368DB685C
:102040009847D9F8000010B103681B6898473868B2
:1020500010B103685B699847D8F8000010B10368B5
:102060005B689847386810B103681B689847D8F8D0
:10207000000010B103689B6898470021E868FFF7EB
:10208000F3FE044620B1002343600372214B03603A
:10209000A868002103685B6A9847064608B1FEF706
:1020A00063FB6868002103685B6A9847054610B1C6
:1020B0003146FEF775FBC9F80040C8F800503E6095
:1020C000E5B12B1DCAF800303046C5F808A03368CA
:1020D000F563DB6898472B6828461B6898472146BC
:1020E000304613F0A3FA236820461B6998472368FB
:1020F00020465B6998472846BDE8F0872B46E1E714
:102100003C870290558A0290CA8702900B88029001
:10211000AE8802902087029007B5D0F8583100F5BC
:102120009E710093044BD0F854210448FFF754FFEC
:1021300003B05DF804FB00BFC8310224C43102249F
:102140002DE9F0470746906899468846036815468A
:10215000DDF820A01B6A9847B0F5FC5F05D2424B22
:10216000A321424A424824F0E3FE686803681B6AE0
:1021700098470F2803D83F4BA4213C4AF2E7E86870
:1021800003681B6A98470B2803D83B4BA521374AA5
:10219000E8E711F001F9043011F023F9D9F8000053
:1021A00010B10368DB689847D9F8000010B10368E4
:1021B0001B689847386810B103685B699847D8F87E
:1021C000000010B103685B689847386810B1036875
:1021D0001B689847D8F8000010B103689B689847BF
:1021E0000021E868FFF740FE044620B10023436069
:1021F0000372224B0360A868002103685B6A98475A
:10220000064608B1FEF794FB6868002103685B6A24
:102210009847054610B13146FEF70AFCC9F8004060
:10222000C8F800503E60E5B12B1DCAF800303046BA
:10223000C5F808A03368F563DB6898472B68284623
:102240001B6898472146304613F0F0F92368204672
:102250001B699847236820465B6998472846BDE874
:10226000F0872B46E1E700BF3C870290598B029034
:10227000CA8702900B880290AE8802902087029055
:1022800007B5D0F8583100F59E710093044BD0F893
:1022900054210448FFF754FF03B05DF804FB00BF6E
:1022A000C8310224C431022413B5002249B102AB63
:1022B000019203F8052D0268946801AAA04702B0B4
:1022C00010BD0846FBE7C0897047008A7047C08888
:1022D000704780887047807A00F07F007047807A6E
:1022E000C0097047002070479FED010A704700BF8A
:1022F00000000000406A7047806A704770478B8812
:10230000C069DB0A0A6850F823001044704710B512
:10231000C2B1137BB3B1547BD27A240204F4E064DB
:102320001443026A98B202EB840213888B4202D1F2
:1023300092F9020010BD05D80138043280B200289D
:10234000F3D1F7E70020F5E710B504462C2123F080
:1023500067FD204610BD000030B58BB00446BDF8C7
:1023600060500895BDF85C5007959DF85050069553
:102370009DF84C5005959DF8485004959DF84450A3
:1023800003959DF8405002959DF83C500195BDF88D
:102390003850009512F0B4FC064B20462360159B84
:1023A000E361169B2362199B63621A9BA3620BB0C5
:1023B00030BD00BF688C029030B5174D8FB02C78BF
:1023C000BFF35B8F14F0010422D1284623F000FDF7
:1023D000F0B13F23012211490993114B0A9408934C
:1023E000104B05941048CDE906430423CDE9033290
:1023F0000A23CDE90B440093CDE90144FFF7ACFF7C
:10240000284623F0F1FC094A0949074823F003FD57
:1024100005480FB030BD00BFB403002474062090FF
:10242000B0BB0290ACBB0290B803002400000024B3
:10243000FD22009010B5002404600C6014601C6044
:1024400010BD000030B5174D8FB02C78BFF35B8FF7
:1024500014F0010422D1284623F0BAFCF0B13F2346
:10246000012211490993114B0A940893104B0594CA
:102470001048CDE906430423CDE903322823CDE9F2
:102480000B440093CDE90144FFF766FF284623F093
:10249000ABFC094A0949074823F0BDFC05480FB0C9
:1024A00030BD00BFE40300249C062090A8BB02902E
:1024B000D8BB0290E803002400000024FD22009015
:1024C00030B5174D8FB02C78BFF35B8F14F001043B
:1024D00023D1284623F07CFCF8B13F2311490A940C
:1024E0000993114B01940893104B11480793012352
:1024F000CDE9054304930423CDE902431423CDE938
:102500000B441A460093FFF727FF284623F06CFC84
:10251000084A0949064823F07EFC05480FB030BD43
:1025200014040024AC062090B4BB0290DCBB0290E3
:102530001804002400000024FD220090704710B50C
:102540000446042123F06CFC204610BD08B5032985
:102550000FD8DFE801F00A02060A00F01BF8406815
:1025600008BD00F017F88068FAE700F013F800687B
:10257000F6E70020F4E7000000487047DC8C02908A
:1025800001207047004870479C90029004207047DB
:1025900008207047004870474404002410B5054CDB
:1025A000FFF78EFF2060FFF74DFF6060FFF704FF2D
:1025B000A06010BD44040024002070470020704734
:1025C0000EB403B503AB002153F8042B019311F0B3
:1025D00031FE02B05DF804EB03B070470CB407B5F0
:1025E00004AB53F8042B019311F024FE03B05DF803
:1025F00004EB02B07047000010B5436C044673B39F
:10260000038F2BB9184BC521184A194824F090FCA8
:10261000C38E00EB43035B8C0BB313F04DFD238F94
:10262000012B03D8134BCB21134AEEE7E28E40F681
:102630003F10531C9BB2092B194688BFA3F10A0116
:1026400004EB4101498C814209D10A2B04EB42027F
:1026500028BF0023508C04EB430358845184204648
:10266000BDE8104013F02ABCEC9002901992029041
:10267000F5900290399102904791029013F0E7BBD8
:1026800010B586B002AC84E806001A460AAB2146B3
:1026900005930193099B0093089B10F0FFF906B086
:1026A00010BD000038B5D8B9114B12481B6812494B
:1026B000BBB11A689C681A441C4402605A681A44E8
:1026C0000A606CB10D4B00221A80FFF763FF0546CC
:1026D000FFF75EFF0A4B1C600A4B1D600A4B188017
:1026E00038BD0A4B03600A4B0B600A4B1C68E8E7D5
:1026F0005004002454040024580400245C040024E2
:10270000D8310224E0310224DC310224F807209081
:10271000C4072090F4072090044B1B6853F8210055
:10272000034B1B6803EB4000704700BF58040024B4
:1027300054040024012380F8781080F87930704721
:102740000020704741640031024B18BF012119700D
:10275000704700BF7F31022400207047836B0BB1AC
:102760000846184770474FF6FF7070474068036887
:102770009B69184780F82610704790F8260070472C
:1027800010B50022B1F90840B1F90A100280428068
:102790008480C18010BD0022028042808280C2807D
:1027A00070470177704780ED080A704780F8241061
:1027B000704780F8251070470120704798307047A7
:1027C0008C30704784307047034B902283F85A2333
:1027D00083F85823704700BF00E100E0094A0A4926
:1027E000D3680A48C3F30A03013B9BB20B8011690B
:1027F000C1F30A01013901801364536B43F00103F3
:102800005363704700100050960400249404002481
:10281000014B986A704700BF84100050024B0122A0
:10282000996243F8602C70478410005070477047DD
:1028300070477047242303FB0101002381F82430F3
:10284000704780F82C10704710B50446302123F0F3
:10285000E7FA204610BD10B504462C2123F0E0FA1B
:10286000204610BD10B50446BC2123F0D9FA2046FD
:1028700010BD000010B531B90A4B40F2D2210A4A0E
:102880000A4824F055FBC0E90F120032084918BF6E
:1028900001220A7019460268BDE81040D2F88C2067
:1028A000104700BFAE9402903FA20290E6940290BF
:1028B0007E31022408B5094B1B888B4203D8084B94
:1028C0001B88934205D9074B9E21074A074824F0ED
:1028D0002FFB074B1980074B1A8008BD7431022467
:1028E000763102244B940290FCA10290E69402906F
:1028F0007A3102247C31022408B531B1044B4FF403
:102900009171044A044824F013FB90F8250008BD97
:10291000C8930290CC970290DC93029010B531B12D
:10292000064B4FF48E71064A064824F001FB4068BE
:1029300011460368BDE810401B6B1847C89302900E
:10294000179E0290DC93029008B531B1044B4FF40E
:102950008A71044A044824F0EBFAC06808BD00BF3D
:10296000C89302905E9F0290DC93029070B504467B
:102970000D4629B10D4B5E210D4A0E4824F0D8FAC0
:10298000406811460368DB689847606803689B6A83
:1029900098472368E060294684F8285020465E6AFC
:1029A00001222B46B446BDE870406047C8930290B0
:1029B000B89B0290DC9302902DE9F0410446174643
:1029C0000D4629B10E4B4E210E4A0F4824F0B0FAA5
:1029D00040683946026896681A46B04760680368DE
:1029E0009B6A98472368E060294684F8285020466F
:1029F0005E6A01222B46B446BDE8F041604700BF45
:102A0000C8930290449A0290DC93029008B529B1D1
:102A1000054B4021054A064824F08AFA816001618D
:102A2000C0E9053208BD00BFC8930290EF9802903C
:102A3000DC93029038B504460AF0ADF923685D6E68
:102A400010F0AAFC01462046A8472368064A204603
:102A5000D3F888500023A2F57F31A8476268034B62
:102A60005A64034A536038BD00FC03D05405002467
:102A7000640400240AF076B90AF080B90AF03CB97F
:102A80000AF09DBA10B504460AF0C4FE2368204639
:102A9000D3F8AC30BDE8104018470AF051BA90F8AE
:102AA0007A301BB1406803681B68184718467047A6
:102AB00010B590F8784090F834100C4B8C421A788E
:102AC00009D03AB90A490B4A0888148810800122B3
:102AD0000C801A7010BD002AFCD0064A04491488E4
:102AE00008880C8010800022F3E700BF78310224B0
:102AF0007631022474310224134A0023F0B5C2F85F
:102B00008430BFF34F8FD2F8803043F6E076C3F3C2
:102B1000C904C3F34E33A5075B0103EA060C28463C
:102B200021464CEA0007013900F14040C2F87472B6
:102B30004F1CF6D1203B13F1200FEED1BFF34F8F86
:102B4000BFF36F8FF0BD00BF00ED00E0034B5B698A
:102B5000DB0301D5FFF7D0BF704700BF00ED00E0F9
:102B6000034B5B69DB0301D5FFF7C6BF704700BFAE
:102B700000ED00E070B5044629B1274B6E21274ACD
:102B8000274824F0D5F9052A2BD8DFE802F00325E1
:102B90002B30373F406803681B69984708B301230F
:102BA00084F82530002384F82630A360236194F84C
:102BB0002730B3B96468236820469B6A9847236826
:102BC00005462046DB6A984785420AD1236820469D
:102BD0009B69BDE870401847002380F8253080F8D5
:102BE000263070BDC3610023A3602361F9E7C36190
:102BF000012380F8263080F82830F4E700230122F2
:102C000080F8253080F82630C261EDE7003318BF28
:102C1000012380F82730E4E7C893029025950290BD
:102C2000DC9302902DE9F34105461646984629B1FA
:102C3000164BE921164A174824F07AF940680368D0
:102C40001B699847F8B1144C012120680AF044FE32
:102C500041460746684611F0B3FC104BBDF902101F
:102C60001B886868BDF9002003FB0122016807EB9F
:102C70004202CD693146A84720680368DB6A02B08A
:102C8000BDE8F041184702B0BDE8F081C89302905A
:102C9000ACA00290DC930290803102247A310224AD
:102CA00008B590F8243033B1084B40F26B11084A54
:102CB000084824F03DF9012280F82420184681F8C4
:102CC0003430CB860B870B6308BD00BF1B9402908A
:102CD000F79C0290DC930290F8B5044629B13F4B73
:102CE000A9213F4A3F4824F023F990F825301BB929
:102CF00090F82630002B6FD03B4B00271B6893F8D1
:102D00006B10236984F826700B44236194F82830F3
:102D1000002B54D01368104665685B699847E669D4
:102D20002B682EB331465B6A284698472B68E669C4
:102D30002846DB6A98478642E7612CBF00260126B9
:102D40002B6828469B6A9847A368E0600133A3601C
:102D5000A069D4E904325A43A36843439A4239D95B
:102D600094F82C1069BB012184F828103046F8BD76
:102D7000226A62B12846D3E909739847216A01445F
:102D80002846B847A368226A26621344A36094F8D1
:102D900027602B6826B19B69284698470646CFE7EF
:102DA0009B6A284698472B6807462846DB6A98475F
:102DB000874201D22B68EEE784F82560C0E7012640
:102DC000C6E7D31AB3FBF0F30BB92362CBE7013BA1
:102DD0002362C9E70021C7E70126C7E7C89302902D
:102DE00092960290DC93029080310224034B4FF0C4
:102DF00080629A604FF080729A60704700E100E054
:102E0000084B4FF08062C3F88820BFF34F8FBFF3A9
:102E10006F8F4FF08072C3F88820BFF34F8FBFF3DE
:102E20006F8F704700E100E070B5294E3578BFF331
:102E30005B8F15F0010548D1304622F0C9FF00280C
:102E400043D0244C244B04F134002561E5842585CE
:102E50006585A585C4E90035C4E9025511F021FE58
:102E600004F158000CF032FA1C4B2046A3651C4BB1
:102E700040F8843BFDF7C0FF1A4B3046C4F8905031
:102E8000C4F884302433C4F89C50C4F88C306423D4
:102E9000C4F8A450A4F8A030002384F8A850C4F8C3
:102EA000AC30C4F8B030C4F8B430C4F8B8300E4B0D
:102EB00084F8A95084F8AA50C4F8983022F094FFFE
:102EC0000A4A20460A4922F0A6FF024870BD00BF08
:102ED0006004002498040024B8AD0290CC920290C3
:102EE000449302906CAD02904CAD0290000000241F
:102EF0002F28009010B5144C236823B3134B144AA9
:102F00001B6C11888B4213D1124B198804F0C2FC40
:102F1000226892F86A30013382F86A3000F058FB78
:102F200020680AF077FC0020BDE8104001F0C4BB27
:102F300004F0B0FC206803681B6A98470020BDE8D5
:102F4000104001F0E9BB10BD803102240010005098
:102F5000960400249404002410B50446482122F06D
:102F60005FFF204610BD000038B5144D144C2846B4
:102F700000F05AFD22461349284622F04CFF124821
:102F8000124B012212490360002380F8272080F8A9
:102F90002C20224680F8243080F8253080F8263016
:102FA00080F828304360C0E90233C0E90433C0E947
:102FB0000633BDE8384022F02EBF00BF5405002480
:102FC00000000024332800906404002490930290B1
:102FD0002D28009003685B6C184701207047FEE7BE
:102FE000104B82B0D3F8D42042F01002C3F8D420A2
:102FF000D3F8D42002F010020192019ADA6F42F065
:103000001002DA67DA6F22F01002DA67064B074A1D
:103010001A62074A5A62074B4FF080629A6002B008
:10302000704700BF00440258B43D02244130009074
:10303000DF2F009000E100E040F2EF307047000029
:10304000024B1B68586803685B691847803102248B
:1030500008B50B280BD8DFE800F01206100A0A0AA0
:103060000A0808080808012008BD0520FCE7054BF0
:103070007021054A054823F05BFF0020F4E7022099
:10308000F2E700BFA7A202907AA30290C2A2029028
:1030900008B50A2809D8DFE800F010060E0808086D
:1030A000080606060600012008BD054B9121054AC9
:1030B000054823F03DFF0020F6E70220F4E700BFBB
:1030C000A7A20290C4A30290C2A20290F8B50C4637
:1030D000487FFFF7BDFF0546A77F3846FFF7B8FFDB
:1030E00006463846FFF7D4FFA38A628BD21A494BB3
:1030F0001A64A18A628B521A9A61A18A228B521A8F
:103100001A615863A18AE28A42EA01425A6422693A
:10311000DA636268DA602268402A70D010D8042A24
:103120003BD0202A6BD0237F45EA0365394B45F419
:103130000035DD61617FA27F914267D0364A4BE066
:10314000B2F5807F1BD0B2F5007F23D0802AEAD170
:10315000A068021DDA62227F45EA026545F4003567
:10316000DD615E6222695A610278EAB1012A35D0D6
:103170002A4B40F21B112A4A2A4823F0D9FE217F0C
:10318000294A42EA0162DA61E2681A625E622269F1
:103190005A6120E0217F254AF3E7227F45EA026554
:1031A00045F40035DD61F1E7D9694288501E21F40C
:1031B0007F42012122F0100242EA0022DA61154B1F
:1031C000DA6942F02002DA61DA699206FCD4102250
:1031D0009A600029B2D0164A1A60F8BDDA694088B0
:1031E00022F47F42217F013822F01002FF3942F0A1
:1031F000100218BF012142EA0022DA61DFE7237FD3
:1032000045EA0365034B45F40035CBE742F2013252
:10321000E2E700BF00100052012301008DA20290DE
:103220003CA30290C2A202900A0002000900020020
:103230000123020010B5887F0C46FFF729FF1C4BC5
:103240005863A18AE28A42EA01425A642269DA6337
:10325000628BA18A521A1A642268082A16D1A18A9E
:10326000628B521A9A61A18A628B521A1A61586251
:10327000104A217F42EA0162DA61E2681A62226939
:103280005A612269DA600C4A1A6010BD0022D861C6
:103290001A61E1680A0A4809C1F3C40102F47842DC
:1032A00000F4FC6002430A439A63044AECE700BF5F
:1032B0000010005209000100012302000123030055
:1032C000054B4FF080620360044BC3F88820BFF3C6
:1032D0004F8FBFF36F8F7047F4A2029000E100E0C0
:1032E00010B50446FFF7ECFF40F6A451204622F04B
:1032F00097FD204610BD0000012309491C220372DE
:103300000868084B02FB0030007E20B1086802FB11
:10331000003001F0A7B8086802FB003001F060B887
:10332000B03500240C00002410B590F8A03D0446F0
:10333000ABB903689B6A9847174B1A681C23534321
:10334000164AD35C012B09D1154A126832B9227A88
:1033500022B984F8A03D2046FFF7CEFF10BD037AC6
:103360004BB1002303721C200B4B1A680B4B00FB64
:10337000023001F0F9F8606803681B68984700287C
:10338000ECD1637A002BE9D0236884F8A00D2046A5
:103390005B6ABDE810401847B03500240C000024DB
:1033A000AC35002410B50446406803681B68984794
:1033B00058B9637A4BB1237A3BB984F8A03D2046D3
:1033C0002368BDE810405B6A1847084B1A681C2345
:1033D0005343074AD35C012B06D1227A22B984F8E1
:1033E000A03D2046FFF788FF10BD00BFB035002488
:1033F0000C00002470B505460B4B0C3000262C4603
:10340000602268602E726E7244F8203B21460AF0FA
:103410005FFB05F55A63E6602434A342FBD185F8CF
:10342000A06D284670BD00BFF4A20290034B1A683D
:10343000D207FCD423229A60704700BF00100052CC
:103440000C4B5A6912F4803F1A4611D000290FDD47
:1034500000F01F031944BFF34F8F0144C2F8680204
:1034600020300B1A002BF9DCBFF34F8FBFF36F8FA7
:10347000704700BF00ED00E030B5104C2568ED0747
:10348000FCD423250904FF2BA56041F001014FF076
:10349000020565636164E0630AD00949656241EA37
:1034A0000363E361074B22626061E060236030BD2B
:1034B000E561039BA363044BF8E700BF00100052D3
:1034C00009000100010002000100030030B50F4CAB
:1034D0002568ED07FCD423251204FF2BA56042F0DC
:1034E00001024FF0020565636264E063E16008D0A9
:1034F0001B0643F00213E361054B656260612360C4
:1035000030BD044BE3610123F9E700BF0010005216
:1035100001000200020002FF30B50B4C2568ED07E8
:10352000FCD4232512041B06A56042F001020225EB
:1035300043F4003365636264E063E160E361034B7D
:1035400065626061236030BD00100052010002001E
:103550000121002208B5084607F0E3FE0A4B186077
:1035600028B90A4B28210A4A0A4823F0E1FC002224
:103570000421012007F076FF074B186018B9074BAC
:103580002C21034AF0E708BDA00500240FA40290F7
:10359000C3A4029058A402909C05002481A4029028
:1035A000024B4FF0FF31186807F006BFA00500245A
:1035B000014B186807F02CBFA0050024024B002126
:1035C000186807F0F9BE00BFA0050024FFF7F0BFA0
:1035D0000023034803491A46006807F07FBF00BF75
:1035E0009C0500240400002413B50023074C01A906
:1035F0001A46206807F0A4FF4FF0FF33002201A90C
:10360000206807F09DFF02B010BD00BF9C0500249C
:103610007047704770477047012070470C20704713
:103620000C2303FB0100083070470C2303FB01004F
:1036300008307047012070474FF4FC5070474FF43A
:10364000FC5303FB0100083070474FF4FC5303FBAD
:10365000010008307047012070471020704700EBD0
:1036600001100830704700EB011008307047084621
:10367000FEF7CABB034B10B50446036009F08EF891
:10368000204610BD64A5029010B50446FFF7F2FF76
:103690001421204622F0C4FB204610BD034B10B578
:1036A0000446036009F07AF8204610BD30A5029068
:1036B00010B50446FFF7F2FF41F68871204622F06C
:1036C000AFFB204610BD0000034B10B5044603605D
:1036D00009F064F8204610BDFCA4029010B5044621
:1036E000FFF7F2FF1821204622F09AFB204610BD7A
:1036F000094B10B50446036000F5FD501430FFF788
:10370000B9FF04F12C00FFF7C9FF04F11400FFF723
:10371000DBFF204610BD00BF98A5029010B50446FF
:10372000FFF7E6FF42F22811204622F079FB2046FF
:1037300010BD00002DE9F341FEF724FF00240546EB
:10374000FEF724FF2346014622462846009413F044
:1037500001FB284B284A2046284D1A60FEF7A2FF9D
:10376000274B284A28489A6013F05CFA2B78BFF35D
:103770005B8FDB0737D4284622F02AFB002832D0A3
:10378000224C234B04F1140004F12C08236000F5B3
:10379000FD576060C4F8088007F11806E7602661ED
:1037A00008F0FEFF1B4B4046636108F0F9FF1A4B1F
:1037B0003846E36208F0F4FF184B07F114003B6051
:1037C000FDF75CF8224607F114013046FDF76EF96B
:1037D0003046FEF719FB284622F006FB104A114935
:1037E000204622F018FB104802B0BDE8F04100F07E
:1037F000DFBE00BFE43102241C350024A4050024F0
:1038000020350024D026002408000024A805002428
:1038100098A50290FCA4029030A5029064A50290A5
:1038200000000024F136009094340024704700001A
:10383000014800F0D3BE00BF9434002410B5044604
:10384000042122F0EDFA204610BD10B504468C216B
:1038500022F0E6FA204610BD10B504461C2122F0E5
:10386000DFFA204610BD10B50446882122F0D8FAB0
:10387000204610BD2DE9F041414C424D424B2246BD
:10388000424F284642492B6022F0C5FA414E384645
:10389000FFF7B0FD22464049384622F0BCFADFF877
:1038A0003881304618F05EFB22463C49304622F013
:1038B000B2FA404610F096FE22463949404622F0C0
:1038C000AAFA22463749384822F0A5FA3748002399
:1038D00001223749C560038580F82A30C362038618
:1038E00080F8483080F8492080F84A3080F84B3022
:1038F000436580F858304366816680F86C3080F804
:103900006D3080F86E302B49C0E90176C0E9043390
:10391000C0E90633C0E90833C0E90E33C0E910330B
:10392000C0E91333C0E9173380F86F3080F87A208C
:1039300080F87B20204AC0F8803010604FF4F0728D
:1039400080F870300A801D4943670A804FF48872FE
:103950001B4980F878300A801A4980F879300A804B
:10396000194A80F834301370C0F88430174A184B65
:1039700002602246C3671749BDE8F04122F04BBA06
:1039800000000024EC26002428A90290F026002440
:103990001136009020350024C1320090133600907B
:1039A000153600903D250090080000249434002432
:1039B0000100000174310224803102247A31022492
:1039C000763102247C3102247831022450A80290FE
:1039D00040A9029017360090D02600244069704715
:1039E00090F840007047036B23B9C06A003018BFDD
:1039F000012070470120704780687047704704308D
:103A000010B50C460FC884E80F0010BD08B5034A76
:103A100040F2F311024B034823F08AFA7EA702908A
:103A2000F3900290EDA5029000220E4B10B51146C6
:103A300004460360C26380F84020C0E90522C0E963
:103A40000722C0E90922C0E90B22C0E90D22C0E922
:103A50000322C0E90122012007F063FC024B186039
:103A6000204610BDB4A602902492002430B415461E
:103A7000026B42B1C46B406B0C1B204429461A46B2
:103A800030BC23F09DBEC06A0844F7E710B5036B55
:103A900073B1C36B426BC91A5318525C98785C7847
:103AA000000440EA04201043DB7840EA036010BDC4
:103AB000C26A5318525C59789878000440EA012091
:103AC000F1E7036B43B1C36BC91A436B5A18585CD7
:103AD000527840EA02207047C36A5A18585C5378FB
:103AE00040EA03207047000070B50446006B0D46A5
:103AF0001646D8B1A36B934208D209230D4AAF21D1
:103B00000D4884F840300D4B23F012FA0368DB684F
:103B10009847206B3246616B03681B69984710B960
:103B20000D2384F84030606BE56370BDE06A0844A3
:103B3000FBE700BF06A80290EDA5029096A60290B2
:103B40002DE9F041436904462BB9214BF521214A67
:103B5000214823F0EDF908228169FFF7C5FFA1692B
:103B600043F2300646F2643504312046FFF78EFFFB
:103B7000A169A36A084400F108029A4220D263694D
