:020000040800F2
:1000000000000220511C0008710900087309000853
:100010007509000877090008790900080000000048
:100020000000000000000000000000007B09000844
:100030007D090008000000007F0900088109000810
:10004000A11C0008A11C0008A11C0008A11C00089C
:10005000A11C0008A11C0008A11C0008A11C00088C
:10006000A11C0008A11C0008A11C0008A11C00087C
:10007000A11C0008A11C0008A11C0008A11C00086C
:10008000A11C0008A11C0008A11C0008A11C00085C
:10009000A11C0008A11C0008A11C0008A11C00084C
:1000A000A11C0008A11C0008A11C0008A11C00083C
:1000B000A11C0008A11C0008A11C0008A11C00082C
:1000C000A11C0008A11C0008A11C0008A11C00081C
:1000D000A11C0008A11C0008A11C0008A11C00080C
:1000E000A11C0008A11C000800000000A11C0008C1
:1000F000A11C0008A11C0008A11C0008A11C0008EC
:10010000A11C0008A11C0008A11C0008A11C0008DB
:10011000A11C0008A11C0008A11C0008A11C0008CB
:10012000A11C0008A11C0008A11C0008A11C0008BB
:10013000A11C0008A11C0008A11C0008A11C0008AB
:1001400000000000000000000000000000000000AF
:10015000A11C0008A11C0008A11C0008A11C00088B
:10016000A11C0008A11C0008A11C0008A11C00087B
:10017000A11C0008A11C0008A11C0008A11C00086B
:10018000A11C0008A11C0008A11C0008A11C00085B
:10019000A11C0008A11C0008A11C0008A11C00084B
:1001A000A11C0008A11C0008A11C0008A11C00083B
:1001B000A11C0008A11C0008A11C0008A11C00082B
:1001C000A11C0008A11C0008A11C0008A11C00081B
:1001D000A11C0008A11C0008A11C0008A11C00080B
:1001E000A11C0008A11C0008A11C0008A11C0008FB
:1001F000A11C0008A11C0008A11C0008A11C0008EB
:10020000A11C0008A11C0008A11C0008A11C0008DA
:10021000A11C0008A11C0008A11C0008A11C0008CA
:10022000A11C0008A11C0008A11C0008000000007F
:10023000A11C0008A11C000800000000A11C00086F
:10024000A11C0008A11C0008A11C0008A11C00089A
:10025000A11C0008A11C0008A11C0008A11C00088A
:10026000A11C0008A11C0008A11C0008A11C00087A
:10027000A11C0008A11C0008A11C0008000000002F
:10028000A11C0008A11C0008A11C0008000000001F
:1002900000000000A11C000810B5054C237833B9FC
:1002A000044B13B10448AFF300800123237010BD49
:1002B0003C04002000000000081E000808B5034BA5
:1002C0001BB103490348AFF3008008BD00000000E4
:1002D00040040020081E000880B59CB0BFF34F8F7B
:1002E000BFF36F8F684B0021C3F85012BFF34F8FDD
:1002F000BFF36F8F5A6942F400325A61BFF34F8FD8
:10030000BFF36F8FC3F88410BFF34F8FD3F88020F3
:1003100043F6E076C2F3C904C2F34E32A507520198
:1003200002EA060C284621464CEA0007013900F192
:100330004040C3F860724F1CF6D1203A12F1200FF2
:10034000EED1BFF34F8F5A6942F480325A61BFF346
:100350004F8FBFF36F8F00F079FB022000F016FD86
:1003600000230093494BDA6A22F00102DA62DB6A69
:1003700003F001030093464B9A6942F440429A61AC
:100380009A6902F440420092009A9A699404FCD55A
:100390004FF480334FF0010E0520A02102220424E7
:1003A00008251692189217941995CDE909E30023B0
:1003B000CDE9140109A80C9310931B931A93CDE96E
:1003C000122201F005F800B1FEE703234FF03F0CC5
:1003D0004FF480622146CDE901C34023CDE90305F6
:1003E00001A8CDE90533CDE9072301F00DFB00B1EC
:1003F000FEE700F0BBF900B1FEE7BFF34F8FBFF39C
:100400006F8F214B5A6922F400325A61C3F85002AF
:10041000BFF34F8FBFF36F8FC3F88400BFF34F8FCD
:100420005A6922F480325A61BFF34F8FD3F880208B
:1004300043F6E076C2F3C904C2F34E32A507520177
:1004400002EA060C284621464CEA0007013900F171
:100450004040C3F874724F1CF6D1203A12F1200FBD
:10046000EED1BFF34F8FBFF36F8F0A4B00221A609C
:10047000094B0A4A1B6813604FF01042126882F35E
:1004800008889847FEE700BF00ED00E00004005830
:100490000048025810E000E00400009058040020DA
:1004A0007B4B2DE9F04FD3F8D42091B0794D09243E
:1004B00042F480420026784F0BA9C3F8D420284686
:1004C000D3F8D4204FF040084FF00A0BDFF8D0A14A
:1004D00002F480424FF400790092009ADA6F42F4FD
:1004E0008042DA67DA6F22F48042DA67D3F8E020DC
:1004F00042F02002C3F8E020D3F8E02002F020020E
:100500000192019AD3F8E02042F00802C3F8E020FB
:10051000D3F8E02002F008020292029AD3F8E02019
:1005200042F02002C3F8E020D3F8E02002F02002DD
:100530000392039AD3F8E02042F02002C3F8E020AF
:10054000D3F8E02002F020020492049AD3F8E020CD
:1005500042F02002C3F8E020D3F8E02002F02002AD
:100560000592059AD3F8E02042F04002C3F8E0205B
:10057000D3F8E02002F040020692069AD3F8E02079
:1005800042F08002C3F8E020D3F8E02002F08002BD
:100590000792079AD3F8E02042F08002C3F8E020E7
:1005A000D3F8E02002F080020892089AD3F8E02005
:1005B00042F04002C3F8E020D3F8E02002F040020D
:1005C0000992099AD3F8E02042F04002C3F8E020F3
:1005D0004FF48062D3F8E03003F040030A930A9BA3
:1005E0000223CDE90B230323CDE90D630F9400F023
:1005F000DBFA01230BA93846CDF82C800D93CDF8FA
:100600003CB000F0D1FA4FF400630BA923480B93E0
:100610000D960F9400F0C8FA04230BA950460F94CE
:100620000B9300F0C1FA0BA92846CDF82C90CDF819
:100630003CB000F0B9FA08230BA950460F940B9375
:1006400000F0B2FA80230BA928460F940B9300F018
:10065000ABFA0BA93846CDF82C9000F0A5FA0BA9FF
:100660002846CDF82C8000F09FFA4FF480430BA968
:1006700038460B9300F098FA32460F215C2000F0C8
:100680003DFA5C2000F06CFA11B0BDE8F08F00BFBD
:10069000004402580014025800180258000C025876
:1006A000001C025800B54FF4407395B04FF04072F3
:1006B00011480C9305230F920222069300230B92FC
:1006C00006A913930093049303926A46CDE90D3370
:1006D000CDE91133102302934FF48003059340F2C8
:1006E0000113019341F2883300F0D9FD003018BFA7
:1006F000012015B05DF804FB5C04002000B54FF448
:10070000407395B041F2883217480C93062306A92E
:1007100006930023CDE90D330F930B931393CDE98B
:10072000113300F0BCFCE8B940F2022302224FF47E
:10073000800104900C48CDE900331023CDE902324A
:1007400005236A46CDE905134FF0407306A90F93C0
:1007500041F2883300F0A3FD003018BF012015B02E
:100760005DF804FB0120FAE75C0400202DE9F0436A
:100770007D4C9DB07D4B2046236000F074FC074605
:1007800008B10124ECE0FFF78BFE01250323C4E947
:1007900001351023E3604FF0006393FAA3F3B3FA3B
:1007A00083F34FF440762046E761013B2361402309
:1007B000C4E90567236200F0F7FB0028E1D14FF49C
:1007C00080774FF06609099041F2883205906946BA
:1007D0000D900697CDF80090CDE90700CDE90B000C
:1007E000204600F05CFC0028CBD14FF0990841F284
:1007F000883269462046CDF8008000F050FC002881
:10080000BFD141F28832694620460696CDF8009065
:1008100000F045FC0028B4D141F2883269462046F8
:10082000CDF8008000F03BFC0028AAD135231790BA
:10083000139041F288321B900EA914970E93CDE9C4
:100840001500CDE91900204600F029FC002898D1B8
:10085000FFF728FF002894D1B723149617900E9322
:1008600013901B90CDE91500CDE91900FFF746FF65
:10087000002886D141F288320EA9204600F00FFCF4
:1008800000287FF47EAFFFF70DFF00287FF479AFDB
:1008900085234FF440764FF04075ADF800000E937D
:1008A0000223139041F288320EA914961795CDE9D0
:1008B0001500CDE91830CDE91A002B4800F0EFFB08
:1008C00000287FF45EAF41F288326946264800F086
:1008D00085FC00287FF455AFFFF710FF0446002881
:1008E0007FF44FAF812341F288320EA91E480E9348
:1008F000BDF8003023F0F0031B051B0D43F400434B
:1009000043F08003ADF8003000F0C9FB00287FF40D
:1009100038AF41F288326946134800F003FC0028E2
:100920007FF42FAFED236A460EA90F480E934FF4C4
:1009300040631B9415934FF4405314961193052371
:10094000CDE9164513934FF000454FF08043CDE9B4
:100950000044CDE9195300F0F7FC002818BF01242A
:1009600020461DB0BDE8F0835C040020005000521A
:100970007047FEE7FEE7FEE7FEE770477047704707
:1009800000F092B81849194810B5D1F8883043F4EE
:100990007003C1F88830164B1A6842F001021A60E1
:1009A00000221A611C68204018609A61DA611A629C
:1009B0009A62DA621A635A639A63DA631A645A644F
:1009C000186820F4802018601A660A4B1B681B0CFC
:1009D0001B04B3F1005F02D2074B01221A604FF0F3
:1009E00000638B6010BD00BF00ED00E07FEDF6EA14
:1009F000004402580010005C08810051704700005C
:100A000038B50F4B0546187808B9012038BD4FF4AA
:100A10007A730C4AB3FBF0F31068B0FBF3F000F00C
:100A2000ADF804460028F0D10F2DEED80246294635
:100A30004FF0FF3000F062F8034B20461D60E5E701
:100A400008000020000000200C00002010B503204A
:100A500000F042F800F03CFF0F49104A8B69C3F3E5
:100A60000323D35C03F01F03D8400D4B18608B6940
:100A700003F00F03D35C03F01F03D840094B186049
:100A80000F20FFF7BDFF044618B9FFF7B7FF204658
:100A900010BD0124FBE700BF00440258201E0008DF
:100AA0000000002004000020034A044B11681B785A
:100AB0000B441360704700BFA8040020080000200A
:100AC000014B1868704700BFA8040020014B18684C
:100AD000000C70470010005C074A0002D36800F465
:100AE000E06023F4E0631B041B0C43F0BF6343F49A
:100AF00000330343D360704700ED00E0164B70B540
:100B0000DC684FF0FF36C4F30224C4F10705231D4F
:100B1000042D28BF0425062B06FA05F38CBF033CE1
:100B20000024002821EA030303FA04F306FA04F47C
:100B300022EA040443EA04034FEA0313DBB206DBB0
:100B400000F1604000F5614080F8003370BD00F0B6
:100B50000F00024A1354F9E700ED00E014ED00E045
:100B6000002808DB4209012300F01F0003FA00F00F
:100B7000014B43F82200704700E100E00138B0F17A
:100B8000807F0AD2064BF021064A5860002082F886
:100B90002310072298601A6070470120704700BF39
:100BA00010E000E000ED00E04FF0B04C00232DE934
:100BB000F74F724EE246DFF8D0B10A6832FA03F41A
:100BC00002D103B0BDE8F08F4FF0010E0EFA03FE24
:100BD0001EEA020200F0BD804C6824F01004022CD2
:100BE00014D14FEAD30803F007090F2500EB88085A
:100BF0004FEA8909D8F8204005FA09F524EA0505E5
:100C00000C6904FA09F42C43C8F820404FEA430861
:100C10004FF003094C6809FA08F9056804F0030469
:100C20006FEA090904FA08F409EA05052C4304608F
:100C30004D6825F01005013D012D11D88468CD685F
:100C400009EA040405FA08F525438560446824EAA6
:100C50000E0E4C68C4F300149C4044EA0E04446039
:100C6000C46809EA04098C6804FA08F444EA09042F
:100C7000C4604C68E4006CD5414D03F0030E4FF0A6
:100C80000F08D5F8F4404FEA8E0E44F00204C5F880
:100C9000F440D5F8F44023F0030505F1B04504F025
:100CA000020405F580650194019C08FA0EF4D5F85C
:100CB000089029EA0408334CA0424CD004F5806423
:100CC000A0424AD004F58064A04248D0584548D09C
:100CD00004F50064A04246D004F58064A04244D0EC
:100CE00004F58064A04242D004F58064A04240D064
:100CF00004F58064A0423ED004F58064A0420CBF9D
:100D000009240A2404FA0EF444EA0804AC60D5432A
:100D10004F683468FF034CBF14432C4034604F6865
:100D20007468BF034CBF14432C4074604F68DCF8F8
:100D30000040FF024CBF14432C40CAF800404F68EB
:100D4000DAF80440BF0254BF05EA04022243CCF89B
:100D50000420013331E70024D4E70124D2E7022440
:100D6000D0E70324CEE70424CCE70524CAE7062411
:100D7000C8E70724C6E70824C4E700BF800000587E
:100D80000044025800000258000C025838B5104CBC
:100D9000E36813F0040FE36805D103F00703181AA2
:100DA00018BF012038BD23F007031843E060FFF7A8
:100DB00087FE054663689B0401D50020F2E7FFF734
:100DC0007FFE401BB0F57A7FF4D90120EAE700BF2F
:100DD000004802584B6A2DE9F04733B1B2F1406F39
:100DE00003D08B6A0468013B23618B690C6A002B7A
:100DF00067D00568002C35D08B68EB61CC694B6AF5
:100E000005688F69D1F820C0D1F83480D1F810E09E
:100E10000E68D1E90BA9A4B144EA0A04144344EAD8
:100E2000090444EA08042343CC6843EA0E0343EA76
:100E30000C0323433B434C69334343EA84436B61D4
:100E40002AE04AEA0904144344EA0804234343EA33
:100E50000E0343EA0C033B4333434E6943EA8646A1
:100E60006E612CE04E69CC69D1F80090B604D1F8DF
:100E700024804F6BD1E90BECACB11C43CB6814431D
:100E800044EA090444EA080444EA0E0444EA0C046F
:100E90003C431C4334436C61B2F1406F0FD0036894
:100EA0004A689A610BE043EA0903134343EA0803E3
:100EB00043EA0E0343EA0C033B4333436B61BDE853
:100EC000F08744B303688C68DC61CC69D1F8248076
:100ED00005688E69D1F820C04B6BD1F810E0D1E9DC
:100EE0000B796CB13C43144344EA09042343CC68B6
:100EF00043EA080343EA0E0343EA0C0323439AE759
:100F000047EA09042243134343EA080343EA0E0372
:100F100043EA0C03A0E7CD694B6A7DB12B43CD6A50
:100F2000046813432B430D6B2B434D6B2B43CD6850
:100F30002B434D6943EA85436361ADE7002BBED087
:100F4000CC6A0068234313430A6B13434A6B134371
:100F50004A6943EA82434361B1E72DE9F041069DC6
:100F600004460F461646984621688A683A4214BFDE
:100F700001220022B24201D1002011E06B1CF4D00A
:100F8000FFF79EFDA0EB0800A84201D8002DEBD191
:100F90000423012084F84130636C43F0010363644F
:100FA000BDE8F0817047000037B50446FFF788FDC3
:100FB0000546002C4FD094F84030012B4DD0012332
:100FC00084F8403094F8412002F0FF033AB984F8E5
:100FD00040302046FFF7E6FF41F28833A3642068E3
:100FE000A1680268013922F4706242EA01222021DC
:100FF00002600022A36C204600932B46FFF7ADFF52
:1010000020BB2168E569E3680A682B43256A22F062
:101010007F422B43656822F0D00243EA0563134305
:101020000B602168D4E905324D681343226943EA15
:1010300002430B4A2A4013434B602268136843F073
:10104000010313600123606484F84130002384F8B5
:10105000403003B030BD0120FBE70220F9E700BFBC
:10106000FEF8E0FF704710B50446A0B190F840309C
:10107000012B12D00268012380F84030136823F05E
:1010800001031360FFF7EEFF0020606484F8410065
:1010900084F8400010BD0120FCE70220FAE72DE9AA
:1010A000F34704468A469146FFF70AFD94F840301C
:1010B0008046012B34D00123022784F8403094F875
:1010C0004160F6B29E4229D100220346CDF800903D
:1010D00020216264204684F84170FFF73EFF0546F8
:1010E000A8B9024651462046FFF774FEDAF82430CC
:1010F0005BB9CDF800904346324639462046FFF7AB
:101100002CFF054618B92368DF6084F8416000238E
:1011100084F84030284602B0BDE8F0873D46F6E747
:101120000225F7E72DE9F341044688461746FFF705
:10113000C7FC94F840300646012B4DD001232568AA
:1011400084F8403094F84100C0B2984242D1002364
:101150006364B8F1000F38D0122384F841302B6952
:101160000133E3622B69C4F824800133A3626B6905
:1011700023F040636B61E36A9BB900973346012219
:1011800002212046FFF7E9FE10B923680222DA6047
:10119000012384F84130002384F8403002B0BDE8D8
:1011A000F08100973346012204212046FFF7D5FE47
:1011B0000028EDD1636A1B7885F82030636A01331B
:1011C0006362E36A013BE362D5E7636C43F00803C3
:1011D0006364E0E70220DEE70220DFE72DE9F34168
:1011E000044617468846FFF76BFC25680646AA6941
:1011F00094F84030012B50D0012384F8403094F80B
:101200004100C0B2984246D100236364B8F1000F98
:101210003CD0222384F841302B690133A3632B692E
:10122000C4F83080013363636B6923F0406343F09B
:1012300080636B6123689A61A36B9BB90097334607
:10124000012202212046FFF788FE10B923680222FE
:10125000DA60012384F84130002384F8403002B082
:10126000BDE8F08100973346012206212046FFF7B2
:1012700074FE0028EDD195F82020236B1A70236BA3
:1012800001332363A36B013BA363D5E7636C43F096
:1012900008036364E0E70220DEE70220DFE72DE9D0
:1012A000F7430446984689461646FFF709FC94F82A
:1012B00040300746012B45D0012384F8403094F894
:1012C0004150EDB29D423BD142230022CDF8008037
:1012D0002021626484F8413003462046FFF73DFE3A
:1012E00040BB2368204632689A62236872685A625B
:1012F0002368B268DA62216833690A6843F48003BC
:1013000022F4400213434FF000620B604946F36839
:10131000C9F82830FFF75EFDCDF800803B462A462D
:1013200008212046FFF719FE20B923680822DA6059
:1013300084F84150002384F8403003B0BDE8F083C6
:101340000220F7E70220F8E7F7B5044617460E46F5
:10135000FFF7B6FB94F840200346012A36D001225D
:1013600084F8402094F84120012A2DD100228221C6
:101370002046626484F84110A16C00912021FFF79F
:10138000ECFD0546D0B922687968136823F008039C
:101390000B4313607B68082B0AD123683A681A63F1
:1013A00010222368DA602268136843F48013136004
:1013B0004FF0406231462046FFF70CFD002384F8D1
:1013C0004030284603B0F0BD0225F7E70225F8E7D4
:1013D000F8B5044608B9012090E00368DD075ED443
:1013E0002368980700F1AC802368DA0623D5AB4B5D
:1013F0001A69996A02F03802082A07D0182A40F0C0
:10140000008101F00302012A40F0FB801B68DB052C
:1014100002D5E369802BDED1FFF758FB41F20303CD
:101420009E4A9842216A00F2E580536823F0F8430F
:1014300043EA816353602368190700F11B81236825
:101440009A0600F1408123685D0722D5944D2B68F0
:1014500043F480732B60FFF733FB06462B68DA05F5
:1014600040F15681A2688D4B012A40F058811A6FD5
:1014700042F001021A67A368002B00F06781FFF7B2
:101480001FFB864D064641F288372B6F9B0740F1C4
:101490005681606A002840F0698100202EE07F4B71
:1014A0001A69996A02F03802102A05D0182A0AD15E
:1014B00001F00302022A06D11B68990390D56368E4
:1014C000002B8DD187E76268744BB2F5803F16D14F
:1014D0001A6842F480321A6063680BB3FFF7F0FABF
:1014E0006E4D064641F288372B689A033FF578AF78
:1014F000FFF7E6FA801BB842F6D90320F8BD3AB9E7
:101500001A6822F480321A601A6822F48022E2E714
:10151000B2F5A02F1A68F4D142F480221A60D7E7FE
:10152000FFF7CEFA5D4D064641F288372B689B03E4
:101530007FF556AFFFF7C4FA801BB842F6D9DCE757
:10154000564B1A69996A12F0380203D0182A1BD137
:101550008E0719D11B685D0703D5E368002B3FF4A4
:101560003AAFFFF7B3FA41F203034C4A98422169BC
:10157000536895BF23F47C3323F0FE4343EA0133E1
:1015800043EA016353602FE7444DE2682B680AB3D6
:1015900023F0190313432B60FFF792FA06462B68DA
:1015A000580711D5FFF792FA41F2030322699842D6
:1015B0006B6895BF23F47C3323F0FE4343EA023388
:1015C00043EA02636B600FE7FFF77AFA801B022899
:1015D000E5D992E723F001032B60FFF771FA064685
:1015E0002B6859077FF500AFFFF76AFA801B0228C6
:1015F000F6D982E7D36823F07C5343EA0163D360D2
:1016000019E7E369254D23B32B6843F080032B6072
:10161000FFF756FA06462B68DF050DD5FFF756FA99
:1016200041F20303226A98420CD86B6823F0F84316
:1016300043EA82636B60FEE6FFF742FA801B0228F2
:10164000E9D95AE7EB6823F07C5343EA0263EB6085
:10165000F1E62B6823F080032B60FFF731FA064692
:101660002B68D8057FF5E7AEFFF72AFA801B022822
:10167000F6D942E76369094DA3B16B6F43F00103EB
:101680006B67FFF71DFA06466B6F9B073FF5D7AEFA
:10169000FFF716FA801B0228F6D92EE700440258FD
:1016A000004802586B6F23F001036B67FFF708FADD
:1016B00006466B6F9F077FF5C2AEFFF701FA801BEE
:1016C0000228F6D919E7A369804D83B12B6843F44A
:1016D00080532B60FFF7F4F906462B6898043FF51A
:1016E000B2AEFFF7EDF9801B0228F6D905E72B68AB
:1016F00023F480532B60FFF7E3F906462B68990427
:101700007FF5A1AEFFF7DCF9801B0228F6D9F4E6DD
:10171000FFF7D6F9801B64287FF6A0AEEDE63AB954
:101720001A6F22F001021A671A6F22F00402A1E672
:10173000052A1A6FF5D142F004021A6797E6FFF7FF
:10174000BFF9801BB8427FF6A0AED6E6FFF7B8F926
:101750005E4D064641F288372B6F98077FF599AEAC
:10176000FFF7AEF9801BB842F6D9C6E6574D2B6994
:1017700003F03803182B7AD02B68022823F08073EB
:101780002B6067D1FFF79CF906462B6899015BD463
:10179000AB6AA26A23F47C7323F003031343E26A67
:1017A00043EA0213AB62636BA26B013B013A5B023B
:1017B00012049BB202F4FE021343226B013AC2F3FD
:1017C00008021343E26B013A120602F0FE42134391
:1017D0002B63EB6A23F00103EB626B6BA26C23F4C7
:1017E0007F4323F0F80343EAC2036B63EB6A226C86
:1017F00023F00C031343EB62EB6A626C23F00203E9
:10180000324C1343EB62EB6A43F48033EB62EB6AD6
:1018100043F40033EB62EB6A43F48023EB62EB6A40
:1018200043F00103EB622B6843F080732B60FFF7FA
:1018300047F9054623689A013FF52FAEFFF740F9B7
:10184000401B0228F6D958E6FFF73AF9801B022818
:101850009BD952E6FFF734F904462B689B017FF5CC
:101860001CAEFFF72DF9001B0228F6D945E601282A
:10187000AA6A2B6B3FF442AE02F00301A06A8142D8
:101880007FF4A9ADC2F30512E16A8A427FF4A3ADE9
:10189000226BC3F30801013A91427FF49CAD626B65
:1018A000C3F34621013A91427FF495ADA26BC3F395
:1018B0000641013A91427FF48EADE06BC3F30663BB
:1018C0000138181A18BF012018E600BF004402585A
:1018D000464B10B51A6902F03802102A00F08480D5
:1018E000182A0CD00AB1424810BD1A68414812F0BB
:1018F000200FF9D01B68C3F3C103D840F4E7996AFD
:10190000986ADA6AC0F305105C6B0028ECD007EE29
:10191000900A02F00102C4F3CC00B7EE006AF8EEC0
:10192000E76A424307EE902A01F00302012AFAEE29
:10193000E97A02D00FD3022A48D01B6BC3F3080305
:1019400007EE103AB8EEC77A77EE277A77EE867A06
:101950009FED296A37E01A68920627D51968254A4B
:10196000C1F3C1011B6BCA40C3F3080307EE102A81
:10197000F8EEC75A85EEA67A06EE903AF8EEE66AD9
:1019800076EEA77A77EE867A184B67EE877A1B6B2E
:10199000C3F34623013307EE103AF8EEC76A87EE29
:1019A000A67AFCEEC77A17EE900A9DE71B6BC3F38D
:1019B000080307EE103AB8EEC77A77EE277A77EE8B
:1019C000867A9FED0E6A86EE267ADDE71B6BC3F3FF
:1019D000080307EE103AB8EEC77A77EE277A77EE6B
:1019E000867A9FED076AEEE706487DE700440258D5
:1019F00000093D000090D0030024744A0024744C78
:101A000020BCBE4B40787D012DE9F0410D460446D7
:101A100010B90120BDE8F081884A136803F00F0374
:101A20008B42C0F0928023685E0700F19A802368A1
:101A300018070BD5824A6069D16901F070018842AC
:101A400004D9D36923F070030343D3612368D90613
:101A50000BD57B4AA069D16901F4E061884204D9C1
:101A6000D36923F4E0630343D36123689A060BD55B
:101A7000734AE069116A01F07001884204D9136A5F
:101A800023F070030343136223689B070BD56C4A52
:101A9000E068916901F00F01884204D9936923F04D
:101AA0000F03034393612368DF0768D423689E070D
:101AB00000F19B80614A136803F00F03AB4200F210
:101AC000A2802368580700F1AA80236819070BD564
:101AD0005B4A6069D16901F07001884204D2D36920
:101AE00023F070030343D3612368DA060BD5544A0D
:101AF000A069D16901F4E061884204D2D36923F47A
:101B0000E0630343D36123689B060BD54C4AE0692D
:101B1000116A01F07001884204D2136A23F0700345
:101B200003431362FFF7D4FE454B464A9B69C3F358
:101B30000323D35C03F01F03D840434B1860434B8F
:101B4000BDE8F0411868FEF75BBF136823F00F0390
:101B50000B431360136803F00F038B427FF459AFFC
:101B600061E7374A2069916901F0700188427FF688
:101B70005EAF936923F070030343936157E7304BE3
:101B8000A1689A6922F470620A439A6161681A68CE
:101B900002291DD112F4003F3FF43BAF1A6941F214
:101BA0008838274E22F007020A431A61FEF788FFA1
:101BB00007463369626803F03803B3EBC20F3FF4A2
:101BC00075AFFEF77DFFC01B4045F2D9032021E72A
:101BD000032902D112F0007FDEE7012902D112F4BD
:101BE000807FD9E712F0040FD6E7154AE0689169C3
:101BF00001F00F018842BFF45DAF936923F00F033A
:101C00000343936156E7136823F00F032B431360DC
:101C1000136803F00F03AB427FF4FBAE51E7084AB1
:101C20002069916901F070018842BFF44EAF936959
:101C300023F070030343936147E700BF0020005285
:101C400000440258201E0008000000200C00002064
:101C5000DFF834D0002103E00C4B5B5843500431D3
:101C60000B480C4B42189A42F6D30B4A02E0002371
:101C700042F8043B094B9A42F9D3FEF783FE00F089
:101C800011F8FEF729FB704700000220401E0008F3
:101C9000000000203C0400203C040020D004002070
:101CA000FEE7000070B50D4E0D4D761BB61006D048
:101CB0000024013455F8043B9847A642F9D1094E57
:101CC000094D761B00F0A0F8B61006D000240134B0
:101CD00055F8043B9847A642F9D170BD341E000860
:101CE000341E00083C1E0008341E0008024B13B1CD
:101CF000024800F005B87047000000000D1D000804
:101D0000002301461A46184600F01EB838B50A4CA2
:101D10000A4D641BA4100AD004F18043013B05EB7B
:101D20008305013C55F804399847002CF9D1BDE8EA
:101D3000384000F06FB800BF401E00083C1E00088D
:101D4000704700BF704700BF2DE9F8432B4D064692
:101D5000286898460F469146FFF7F2FF284B1C680B
:101D6000D4F84831002B3DD05A681F2A0DDC02F10F
:101D7000010C16BB0232C3F804C0286843F8227075
:101D8000FFF7E0FF0020BDE8F8831E4B7BB34FF464
:101D9000C870AFF30080034648B3D4F8482100214F
:101DA000C0E900214FF0010CC4F848010A46C0F810
:101DB0008811C0F88C11002EDCD003EB82010124C5
:101DC000C1F88890D3F8880194402043022EC3F8CC
:101DD0008801C1F80881CDD1D3F88C110C43C3F828
:101DE0008C41C7E704F5A673C4F84831BCE72868FE
:101DF000FFF7A8FF4FF0FF30C5E700BF3804002011
:101E0000301E000800000000F8B500BFF8BC08BC98
:101E10009E467047F8B500BFF8BC08BC9E467047A8
:101E20000000000001020304010203040607080980
:101E300010000020ED1C0008BD02000899020008F7
:101E40000090D0030090D0030100000010000000BB
:101E500000000000FC02002064030020CC030020EE
:101E60000000000000000000000000000000000072
:101E70000000000000000000000000000000000062
:101E80000000000000000000000000000000000052
:101E90000000000000000000000000000000000042
:101EA0000000000000000000000000000000000032
:101EB0000000000000000000000000000000000022
:101EC0000000000000000000000000000000000012
:101ED0000000000000000000000000000000000002
:101EE00000000000000000000000000000000000F2
:101EF00000000000000000000100000000000000E1
:101F00000E33CDAB34126DE6ECDE05000B000000A5
:101F100000000000000000000000000000000000C1
:101F200000000000000000000000000000000000B1
:101F300000000000000000000000000000000000A1
:101F40000000000000000000000000000000000091
:0C2270000000000000000000AC04002092
:0200000490006A
:1000000000000824E5C30090E3440090E54400901C
:10001000E7440090E9440090EB44009000000000A9
:1000200000000000000000000000000051B500903A
:10003000ED44009000000000E1B50090F1AE0090AA
:1000400035C4009035C4009035C4009035C400908C
:1000500035C4009035C4009035C4009035C400907C
:1000600035C4009035C4009035C4009035C400906C
:1000700035C4009035C4009035C4009035C400905C
:1000800035C4009035C4009035C4009035C400904C
:1000900035C4009035C4009035C4009035C400903C
:1000A00035C4009035C4009035C4009035C400902C
:1000B00035C4009035C4009035C4009035C400901C
:1000C00035C4009035C4009035C4009035C400900C
:1000D00035C4009035C4009035C4009035C40090FC
:1000E00035C4009035C400900000000035C4009075
:1000F00035C4009035C4009035C4009035C40090DC
:1001000035C4009035C4009035C4009035C40090CB
:1001100035C4009035C40090F144009035C400907F
:1001200035C4009035C4009035C4009035C40090AB
:1001300035C4009035C4009035C4009035C400909B
:1001400000000000000000000000000000000000AF
:1001500035C4009035C4009035C4009035C400907B
:1001600035C4009035C4009035C4009035C400906B
:1001700035C4009035C4009035C4009035C400905B
:1001800035C4009035C4009035C4009035C400904B
:1001900035C4009035C4009035C4009035C400903B
:1001A000FD44009035C400900945009035C400908E
:1001B00035C4009035C4009035C4009035C400901B
:1001C00035C4009035C4009035C4009035C400900B
:1001D00035C4009035C4009035C4009035C40090FB
:1001E00035C4009035C4009035C4009035C40090EB
:1001F00035C4009035C4009035C4009035C40090DB
:1002000035C4009035C4009035C4009035C40090CA
:1002100035C4009035C4009035C4009035C40090BA
:1002200035C4009015450090214500900000000065
:1002300035C4009035C400900000000035C4009023
:1002400035C4009035C4009035C4009035C400908A
:1002500035C4009035C4009035C4009035C400907A
:1002600035C4009035C4009035C4009035C400906A
:1002700035C4009035C4009035C4009000000000E3
:1002800035C4009035C4009035C4009000000000D3
:080290000000000035C40090DD
:1002A00010B5054C237833B9044B13B10448AFF3B0
:1002B00000800123237010BD800300240000000093
:1002C000FC7B029008B5034B1BB103490348AFF315
:1002D000008008BD0000000084030024FC7B029025
:1002E0007BB972B90029BEBF00204FF0004106E083
:1002F00008BF00281CBF6FF000414FF0FF3000F036
:10030000A5B9ADF1080C6DE904CE002909DB002B7D
:100310001ADB00F035F8DDF804E0DDE9022304B073
:100320007047404261EB4101002B1BDB00F028F8D5
:10033000DDF804E0DDE9022304B0404261EB410155
:10034000524263EB43037047524263EB430300F0B6
:1003500017F8DDF804E0DDE9022304B0404261EB68
:1003600041017047524263EB430300F009F8DDF8A6
:1003700004E0DDE9022304B0524263EB430370471B
:100380002DE9F047089E04468846002B4BD18A424F
:10039000154667D9B2FA82F24AB1C2F1200701FAD2
:1003A00002F320FA07F7954047EA030894404FEA22
:1003B000154E230CB8FBFEF71FFA85FC0EFB1788C1
:1003C00043EA084307FB0CF1994209D9EB1807F1FE
:1003D000FF3080F01B81994240F21881023F2B448C
:1003E0005B1AA4B2B3FBFEF00EFB103344EA0344E5
:1003F00000FB0CFCA44509D92C1900F1FF3380F057
:100400000781A44540F2048102382C4440EA0740A9
:10041000A4EB0C0400271EB1D4400023C6E900431E
:100420003946BDE8F0878B4209D9002E00F0EB80F9
:100430000027C6E9000138463946BDE8F087B3FA1F
:1004400083F7002F47D18B4202D3824200F2FA8019
:10045000841A61EB030301209846002EE0D0C6E920
:100460000048DDE702B9FFDEB2FA82F2002A40F06E
:100470008F80491B4FEA154E1FFA85F80127B1FB03
:10048000FEFC230C0EFB1C1143EA014308FB0CF19C
:10049000994207D9EB180CF1FF3002D2994200F2D1
:1004A000CD808446591AA3B2B1FBFEF00EFB1014A6
:1004B00043EA044408FB00F8A04507D92C1900F1D1
:1004C000FF3302D2A04500F2B6801846A4EB080420
:1004D00040EA0C409FE7C7F1200CBB4022FA0CFE1B
:1004E0004EEA030E01FA07F420FA0CF521FA0CF398
:1004F0004FEA1E482543B3FBF8F92C0C08FB1933CF
:100500001FFA8EFA44EA034309FB0AF49C4202FAFA
:1005100007F200FA07F10BD91EEB030309F1FF30D4
:1005200080F087809C4240F28480A9F102097344E4
:100530001B1BADB2B3FBF8F008FB103345EA0344D4
:1005400000FB0AFAA24508D91EEB040400F1FF33B0
:100550006BD2A24569D90238744440EA0940A0FB35
:100560000289A4EB0A044C45C2464B4654D351D0F1
:10057000002E69D0B1EB0A0564EB030404FA0CFC0D
:10058000FD40FC404CEA0505C6E90054002747E75A
:10059000C2F1200320FA03F7954001FA02F021FA94
:1005A00003F34FEA154E3843010CB3FBFEF71FFA75
:1005B00085F80EFB173341EA034107FB08F38B4232
:1005C00004FA02F407D9691807F1FF3C2FD28B42D5
:1005D0002DD9023F2944CB1A81B2B3FBFEF00EFBAA
:1005E000103341EA034100FB08F38B4207D9691835
:1005F00000F1FF3C17D28B4215D902382944C91AA1
:1006000040EA07473BE73746304609E70746E7E653
:100610001846FBE64145ABD2B8EB020A69EB0E0285
:1006200001381346A4E76046E9E7184695E76746B0
:10063000D1E781467CE702382C4447E7ACF1020C55
:100640002B442FE7384608E73746E9E6704700BFF6
:1006500001F0FF01102A2BDB10F0070F08D010F873
:10066000013B013A8B422DD010F0070F42B3F6D177
:10067000F0B441EA012141EA014122F007047FF090
:1006800000070023F0E80256083C85EA010586EAE7
:10069000010685FA47F5A3FA87F586FA47F6A5FA23
:1006A00087F68EB9EED1F0BC01F0FF0102F007022F
:1006B00032B110F8013B013A83EA010313B1F8D1DA
:1006C0000020704701387047002D06BF35460338BB
:1006D000073815F0010F07D1013015F4807F02BFF4
:1006E000013015F4C03F0130F0BC0138704700BF45
:1006F00090F8252012B103685B6918477047818024
:100700007047C180704701817047418170477047D1
:100710007047704770477047C388D21A8388C91AD8
:10072000036812B209B210B45DF8044B5B6D184750
:10073000806A70477047704704387047704710B53B
:100740000446102125F0DCF9204610BDA0F104007C
:10075000F5E7C06800F0C4B8A0F10400FFF7F9BFE6
:10076000C06800F0DBB8A0F10400FFF7F9BFC06873
:1007700000F0DDB8A0F10400FFF7F9BF0022C1606E
:100780008260044A10B502F108042C320460426011
:1007900010BD00BF247D0290704770477047000075
:1007A000034B10B50446036000F050FB204610BD1B
:1007B000747D029010B50446FFF7F2FF41F6B47164
:1007C000204625F09DF9204610BD000010B50446D6
:1007D00000F0F6FB034B00222046236041F69C7399
:1007E000E25010BD747D029000F0ACBA00F5FD53EC
:1007F000F3EE045ADFED366A70B5D3ED007A41F6B8
:10080000987300F5FD5600F5FD55F4EEE57AC358F2
:100810000C36103506EE103A00F5FD53F1EE10FAE5
:100820000446B8EEC66AF4EEE57AC5BF37EEE55A7F
:100830009FED287A9FED285A25EE075AB0EE667A8A
:10084000F1EE10FAA6EE057A45BF77EEE57ADFED18
:10085000215ADFED217A67EEA57A86ED007A9FEDC9
:100860001F7AF0EE474AE6EE054AB1EE466AE6EE3A
:10087000276AA6EE277AC5ED004AC3ED016AFDEEB0
:10088000E66A00F5FD53FDEEC77A00F52F7083EDA3
:10089000027A16EE903A038117EE903A438113F0F4
:1008A00064FCD6ED007A04F53A70FDEEE77A17EEB7
:1008B000903AA4F8F032D5ED007AFDEEE77A17EE23
:1008C000903AA4F8F232BDE8704013F04EBC00BF7D
:1008D000000010426666663F0000000000001C42F7
:1008E000FDEEC07A0C4A282110B5044617EE903A66
:1008F00000F545702DED028BB0EE408A15F0F4FF47
:1009000004F5067004F5FD5413F02FFC84ED008A05
:10091000BDEC028B10BD00BF687D0290FCEEC07A7A
:10092000983017EE903A80F8263013F01EBC41F64E
:100930009873C150494200F5197080F8281013F0DF
:1009400014BC000038B5002405460421046022468A
:10095000012008F089FF0C4B224604211860052075
:1009600008F082FF094B224604211860012008F09C
:100970007BFF074B224604211860012008F074FF1A
:10098000044B1860284638BDA8030024A4030024A3
:10099000A00300249C03002470B51F4B04461F4D88
:1009A00000221868294609F02DF9012805D1206890
:1009B00095ED000A03689B689847194B0022194D72
:1009C0001868294609F01EF9012804D12068296811
:1009D0000368DB689847144B0022144D18682946B9
:1009E00009F010F9012805D1206895ED000A036887
:1009F0001B6998470E4B00220E4D1868294609F0D6
:100A000001F9012806D1206829680368BDE8704013
:100A10005B69184770BD00BFA8030024B803002419
:100A2000A4030024B4030024A0030024B003002482
:100A30009C030024AC03002470470000034B10B556
:100A40000446036000F076FD204610BDA87D0290AC
:100A500010B50446FFF7F2FF41F66871204625F015
:100A60004FF8204610BD000010B5044600F0ACFD64
:100A7000074B41F654720221204623600023A35005
:100A800041F65872A15041F66472A35010BD00BFE8
:100A9000A87D029010B5044600F00EFD41F6547397
:100AA0000222E35807EE903AB4F96E3293FBF2F368
:100AB000F8EEE77AC4EDA57A07EE903AB4F96C3215
:100AC000F8EEE77A93FBF2F307EE103AC4EDA77A5B
:100AD000B8EEC77A84EDA67A10BD41F6547141F69E
:100AE000587210B443584FF4B47482581A4400F545
:100AF000FB531B685A4392FBF4F304FB132307EEEA
:100B0000903A435000F51970F8EEE77AC0ED0C7A90
:100B10005DF8044B13F029BB38B504460B460D466F
:100B2000064A282100F5357015F0DEFE04F5A470A4
:100B300013F01BFB41F65873E55038BD687D0290F9
:100B4000FCEEC07A983017EE903A80F8263013F019
:100B50000CBB00F5FB5300F52A701960494280F880
:100B6000281013F002BB7047704704387047704775
:100B700010B50446102124F0C3FF204610BDA0F19B
:100B80000400F5E7C068FFF7C7BFA0F10400FFF756
:100B9000F9BFC068FFF7D4BFA0F10400FFF7F9BFA9
:100BA000C068FFF7D6BFA0F10400FFF7F9BF00004F
:100BB0000022C1608260044A10B502F108042C32A0
:100BC0000460426010BD00BFD47D0290704700F504
:100BD00098730868496803C37047704700F0DEBF28
:100BE00010B504464FF4AE7124F08AFF204610BDC4
:100BF00010B50446D0F85801FFF7CEFE2046BDE8F8
:100C0000104012F0BBBA10B50446D0F8400158B1FC
:100C10000368DB68984738B1D4F8400103689B68E3
:100C200098470023C4F8403110BD000010B50446B9
:100C300000F078FF014B2046236010BD207E02901B
:100C4000002070474FF6FF7383814FF0FF3303623C
:100C50001368C3611060704790F825201AB190F8AE
:100C6000242002B118607047704770477047002019
:100C70007047B1F904308380012070477047704796
:100C800030B585B00368044601816D460146D3F84E
:100C900084303C342846984795E8070084E80700EC
:100CA00005B030BD30B585B00368044641816D465E
:100CB0000146D3F884303C342846984795E807002D
:100CC00084E8070005B030BD0022028042808280A7
:100CD000C280704780F83610704770B503680446CC
:100CE00015461B6B98472368294620465B6EBDE876
:100CF000704018470020704770B50D79044690F891
:100D00002C303DB93BB123682046D3F88830BDE88C
:100D1000704018477BB1B5FA85F320465B0984F82B
:100D20002C302368D3F88C309847236820465B69C1
:100D30009847002DE7D070BD08B5FFF7D9FC08BD76
:100D4000806C7047704790F82C302BB1C26EC26532
:100D500023B1436F03667047826EF8E7036FF9E7CC
:100D600070477047704730B4C568034644686A10DE
:100D7000ED079B6804EB020048BFA25830BC48BF97
:100D8000D358184743682BB183682BB9C06800F06B
:100D900001007047184670470120704790F82D30C9
:100DA00080F85A30704710B50446082124F0A8FE98
:100DB000204610BD10B50446782124F0A1FE20463F
:100DC00010BD10B504464C2124F09AFE204610BDFB
:100DD00010B50446102124F093FE204610BD0000FB
:100DE00070B5036804468DB25E6B114B1B682BB95E
:100DF000104B6C21104A114825F00AFF1049828DD2
:100E00000988914203D80F4B6D210B4AF3E713F881
:100E100012200D4B1B6853F8220003681B6B984788
:100E2000291A3346204609B2BDE87040184700BF72
:100E3000243202249D800290CD810290DF800290B6
:100E400028320224208102902C320224034B10B558
:100E50000446036010F0FCFB204610BD6881029040
:100E6000064B10B50446036010F0F2FB41F6947196
:100E7000204624F045FE204610BD00BF6881029048
:100E800010B50446006B50B10368DB68984730B179
:100E9000206B21460368BDE810409B68184710BDD1
:100EA00000F5D070884208B505D112F0E5F8BDE82C
:100EB000084000F083BE08BD00224FF0FF31826081
:100EC000C0E90021704700000A4A026000228280C7
:100ED000C280028142818281C28102824282C261D9
:100EE0000284428480F82420C0E90522012280F88F
:100EF0002520704798AE029070B5036804461546E9
:100F00001B6B98472368294620465B6BBDE8704001
:100F1000184770B504461E46BDF91050FFF7ECFFA8
:100F20002368314620469A6B90472368294620461D
:100F3000DB6BBDE87040184710B50446262200213F
:100F400025F0E1FE2046FFF7BFFF044B204623605B
:100F5000FF2384F826300023A36210BD8CAC0290DE
:100F6000002370B583800646104B114D03602A683C
:100F700092F8581009B1D06C00B990680368DB6A28
:100F800098472B68B0FA80F4D86C640928B10368DC
:100F9000DB6A9847002808BF01242CB9054B2C2197
:100FA000054A064825F034FE304670BD747E029036
:100FB000CC310224E37F0290948102904180029020
:100FC0002DE9F04F044695B0002513F0F3FFA1463C
:100FD000E14BE56304F1C40849F8403B4846FFF79C
:100FE000ABFF04F16C034FF6FF760DF1500A184683
:100FF0000A93FFF7A1FF04F1980304F5D07B04F5F1
:10100000067718460B93FFF797FF40460EF0A2F9BC
:1010100004F59A7318460C93FFF7A2FFCF4B2AF8FA
:10102000086D5146C4F834312433C4F84051C4F833
:101030003C3104F5A473184603930EF0C3FB04F58A
:10104000BA735146ADF84860184604930EF0BAFBE7
:101050005846FFF739FF012384F8CD6184F8C43185
:10106000BF4BC4F8C851C4F8A03104F5EA7384F842
:10107000CC511846C4F8D0510993FFF75DFFB94B26
:101080002A4629460998C4F8D431C4F80052A4F875
:101090000452C4F80852C4F80C52C4F81052C4F8F0
:1010A0001452FFF729FF099958460BF0FBF9262245
:1010B0002946384625F027FE3846FFF705FFAA4B9C
:1010C0005146A4F84462C4F840324FF47F03A4F8B8
:1010D0005862C4F84C32A54BA4F85A62C4F81832CE
:1010E00004F51973C4F84852184684F8505284F82D
:1010F0005152A4F85452A4F85652C4F85C52C4F8A1
:1011000060520593ADF848600EF05CFB04F5247363
:101110005146ADF84860184606930EF053FB04F5AF
:101120002F735146ADF84860184607930EF04AFBFE
:1011300004F53A735146ADF84860184608930EF02E
:1011400041FB41F684734FF4887A4FF4E151E21881
:1011500004F55970261D0D92854AE2500D9B854A73
:101160005C6041F68C73E25041F69073E55010F0EC
:1011700065FA2A464FF4F07329464846CDF800A098
:10118000FFF7C7FE4FF07F4349463046A3660BF09A
:1011900089F92A464FF4F07329460A98CDF800A041
:1011A000FFF7B7FE744B0A993046C4F894300BF041
:1011B00079F92A464FF4F07329460B98CDF800A030
:1011C000FFF7A7FE4FF07F430B993046C4F8C030BD
:1011D00084F8BE500BF066F9322340F20312B721B7
:1011E000009340463323FFF794FE4FF0FF33A022D5
:1011F0004046C4F84031A4F8443111460C9BC4F871
:10120000EC300EF0BDF9A0224FF43E6140460EF0E6
:10121000C2F9D4F80031402B05D040234046C4F831
:1012200000310EF0B7F8404600210EF0BFF94146FC
:10123000304614AD0BF036F907234FF0320903980E
:1012400025F8083D29460FF007FBD1224023CDF8B1
:101250000090B0210398FFF75CFE002103984FF047
:10126000350A0EF06AFA96230399304684F87031F5
:101270004FF000080BF016F9012329460498ADF849
:1012800048300FF0E9FA4923CE22F0210498CDF836
:1012900000A0FFF73EFE002104980EF04EFA0499DC
:1012A00030460BF0FFF800224B46CDF80090114677
:1012B0000998FFF72EFE05235846A4F804322F4B59
:1012C000C4F8083203F54C533333C4F80C32A3F599
:1012D000CC43663BC4F8103203F1331303F54C538F
:1012E000C4F81432FFF72FFDD4F8A03184F8CD8173
:1012F0005846D3F8903098470D9BD422CDF80090F3
:10130000C4F8D031FB214B465846FFF702FE594640
:1013100030460DF138090BF0C5F8A4228B21384670
:10132000FFF7EAFD4FF0FF334846A4F84C82C4F8BB
:1013300048323946D4F81832D3F88430984707F148
:101340003C0399E8070083E807000D4B04F5457955
:101350001B68EBB916E000BF688102907CA902907F
:10136000347F029060AD0290947E0290A47E029041
:10137000D07F0290A10E009070B7C2FF996600FF67
:1013800024320224444B6021444A454825F040FC65
:10139000444B1B88032B03D8434B61213F4AF4E79E
:1013A000424B0321186800F0BFFF414A0346282141
:1013B000484615F099FAC4F8609238464FF004098F
:1013C0000EF0B4FC3B4B294638461293ADF84C90D6
:1013D0000EF0CCFC394630460BF064F80623294663
:1013E0000598ADF848300FF037FA2D2309220598FB
:1013F000082100935346FFF78CFD414605982727A7
:101400000EF09BF9059930460BF04CF829460698EA
:10141000ADF848800FF020FA692336220698AF21F4
:1014200000937723FFF775FD414606980EF085F986
:10143000069930460BF036F829460798ADF84890E3
:101440000FF00AFA4322242307988C210097FFF714
:1014500060FD414607980EF070F9079930460BF091
:1014600021F8022329460898ADF848300FF0F4F926
:1014700024236A22089840F223110097FFF749FDC0
:10148000414608980EF059F9304608990BF00AF8D1
:10149000204615B0BDE8F08F9D8002900882029032
:1014A000DF80029028320224208102903032022410
:1014B000E07F0290947E0290704790F82C302BB120
:1014C000C26EC26523B1436F03667047826EF8E750
:1014D000036FF9E77047704730B4C5680346446846
:1014E0006A10ED079B6804EB020048BFA25830BCAD
:1014F00048BFD358184743682BB183682BB9C068DD
:1015000000F001007047184670470120704790F8BE
:101510002D3080F85A30704710B50446782124F0F9
:10152000EFFA204610BD10B50446102124F0E8FA69
:10153000204610BD034B10B50446036010F088F838
:10154000204610BDFC820290064B10B50446036095
:1015500010F07EF841F65471204624F0D1FA20466E
:1015600010BD00BFFC8202900B7970B504460E4698
:1015700090F82C5053B955B13379012B17D123680A
:101580002046D3F88830BDE8704018477DB1B3FAE3
:1015900083F320465B0984F82C302368D3F88C3021
:1015A0009847236820465B699847002DE4D170BDB9
:1015B00000F5F670884208B505D111F05DFDBDE873
:1015C000084000F0EBBA08BD2DE9F04F044693B097
:1015D000002513F0EFFC2246B34BE56304F1C40889
:1015E00042F8403B10460792FFF7A6FC04F16C035B
:1015F00004F5A4774FF6FF760DF1480A18460893D4
:10160000FFF79AFC04F1980304F5F67904F52A7BB8
:1016100018460993FFF790FC40460DF09BFE04F539
:101620009A7318460A93FFF79BFCA04B2622294683
:10163000C4F834312433C4F840513846C4F83C313E
:1016400025F061FB3846FFF73FFC994B2AF8086DFF
:101650005146C4F870314FF47F03A4F87461C4F8A4
:101660007C31944BA4F88861C4F8483104F5CA73FE
:10167000A4F88A611846C4F8785184F8805184F837
:101680008151A4F88451A4F88651C4F88C51C4F84F
:10169000905103930EF096F804F5E0735146ADF8BF
:1016A0004060184604930EF08DF84846FFF70CFC96
:1016B000012384F8196284F810327F4BC4F8145265
:1016C000C4F8EC3104F5087384F818521846C4F8CD
:1016D0001C520693FFF730FC784B2A4629460698A1
:1016E000C4F82032C4F84C52A4F85052C4F85452F2
:1016F000C4F85852C4F85C52C4F86052FFF7FCFBBF
:10170000069948460AF0CEFE04F5197326222946AA
:101710001846059325F0F7FA0598FFF7D5FB684BB7
:101720005146A4F88A62C4F864324FF07E5358469A
:10173000ADF84060C4F88C324FF4887AC4F8903227
:101740000023261DC4F89432C4F89832C4F89C32A1
:10175000C4F8A032C4F8A4320EF034F841F6447351
:101760004FF4E15104F54970E2180B92554AE250EA
:101770000B9B554A5C6041F64C73E25041F6507346
:10178000E5500FF05BFF2A464FF4F07329460798A7
:10179000CDF800A0FFF7BDFB4FF07F43079930461F
:1017A000A3660AF07FFE2A464FF4F0732946089894
:1017B000CDF800A0FFF7ADFB444B08993046C4F8C4
:1017C00094300AF06FFE2A464FF4F07329460998C8
:1017D000CDF800A0FFF79DFB4FF07F4309993046FD
:1017E000C4F8C03084F8BE500AF05CFE322340F2E8
:1017F0000312FA21009340463323FFF78AFB4FF090
:10180000FF33A0224046C4F84031A4F844311146C9
:101810000A9BC4F8EC300DF0B3FEA0224FF43E61F9
:1018200040460DF0B8FED4F80031402B05D04023DF
:101830004046C4F800310DF0ADFD404600210DF0EA
:10184000B5FE414630460DF130080AF02BFEA222CB
:101850008F213846FFF750FB4FF0FF3300254046FD
:10186000C4F878313946D4F84831A4F87C51D3F81B
:101870008430984707F13C0398E8070083E80700A5
:10188000134B04F535781B682BB9124B6021124AB3
:10189000124825F0BDF9124B1B88012B24D8114B9F
:1018A00061210D4AF4E700BFFC8202907CA90290FE
:1018B000947E0290A47E02904882029060AD0290D5
:1018C000F4AC0290E4820290B115009070B7C2FFB0
:1018D000243202249D80029028830290DF800290AF
:1018E0002832022420810290604B0121186800F008
:1018F0001BFD5F4A03462821404614F0F5FFC4F85B
:10190000908138464FF035080EF010FA594B10A967
:10191000384610930223ADF844300EF027FA3946CA
:1019200030460AF0BFFD3227072310A90398ADF80F
:1019300040300EF091FFD12240230398B021009750
:10194000FFF7E7FA294603980DF0F7FE962303996F
:10195000304684F8BC310AF0A5FD012310A9049893
:10196000ADF840300EF078FF4923CE220498F021E4
:10197000CDF80080FFF7CDFA294604980DF0DDFE82
:10198000049930460AF08EFD2A4629463B460698C1
:101990000097FFF7BEFA05234846A4F85032364BAD
:1019A000C4F8543203F54C533333C4F85832A3F51A
:1019B000CC43663BC4F85C3203F1331303F54C535C
:1019C000C4F86032FFF779FDD4F8EC3184F819528D
:1019D0004846D3F8903098470B9BCF224846C4F82E
:1019E0001C32B7213B460097FFF793FA4946304631
:1019F0000AF058FD294605980EF0E6FA82231422D3
:101A000005980093B0218123FFF783FA1B4B0599BA
:101A10003046C4F88C32C4F890320023C4F8A032A7
:101A2000C4F8A432C4F89832C4F89C32C4F8943292
:101A30000AF038FD062310A95846ADF840300EF0E4
:101A40000BFF2D2309225846082100934346FFF738
:101A500060FA294658460DF070FE304659460AF0A5
:101A600021FD204613B0BDE8F08F00BF30320224C4
:101A7000E07F0290947E0290996600FFAE47E13DC0
:101A80007047704770474160704770470123037289
:101A900070477047704710B4C468034641686210CD
:101AA000E4079B6801EB020048BF8A585DF8044BCD
:101AB00048BFD358184743682BB183682BB9C06817
:101AC00000F001007047184670470120704710B5BC
:101AD00004460C2124F014F8204610BD10B504462D
:101AE0004FF4AE7124F00CF8204610BD10B504463A
:101AF000102124F005F8204610BD10B511F0BCFAF5
:101B00000368BDE81040DB6B18470000044B1B68FE
:101B100093F858200AB1D86C00B99868704700BF94
:101B2000CC310224F8B5044617460E4611F06AFB84
:101B3000164B0025C4F854711C602946144BC4F898
:101B40003C512360134BC4F84051C4F84431124B4C
:101B5000C4F848511868C4F84C51C4F85051C4F83E
:101B6000586103689B689847284600F0A3FBFFF77D
:101B7000CDFF1BF0BAFEFFF7C9FF1BF031FFFFF7E7
:101B8000C5FF1BF039FF2046F8BD00BF20320224FC
:101B90008083029068830290CC310224064BC0F807
:101BA0004801C0F84C310023C0F8503100F5A27351
:101BB000C0F84031704700BF211D0090064BC0F8AF
:101BC0004801C0F84C310023C0F8503100F5A27331
:101BD000C0F84031704700BF8D1E00902DE9F047DE
:101BE000074690689946884603681546DDF820A0A8
:101BF0001B6A984741F6B373984205D8424BA3211C
:101C0000424A434825F004F8686803681B6A98470D
:101C10000F2803D83F4BA4213C4AF2E7E868036849
:101C20001B6A98470B2803D83B4BA521374AE8E7A6
:101C300011F022FA043011F044FAD9F8000010B182
:101C40000368DB689847D9F8000010B103681B6887
:101C50009847386810B103685B699847D8F8000066
:101C600010B103685B689847386810B103681B6857
:101C70009847D8F8000010B103689B689847E86857
:101C8000002103685B6A9847044620B10023436043
:101C90000372224B0360A868002103685B6A9847BF
:101CA000064608B1FEF792FD6868002103685B6A8A
:101CB0009847054610B13146FEF760FDC9F800406F
:101CC000C8F800503E60E5B12B1DCAF80030304620
:101CD000C5F808A03368F563DB6898472B68284689
:101CE0001B6898472146304613F010FB23682046B6
:101CF0001B699847236820465B6998472846BDE8DA
:101D0000F0872B46E1E700BFF08302900586029042
:101D10007E840290BF84029062850290D4830290F8
:101D200007B5D0F8583100F59E710093044BD0F8F8
:101D300054210448FFF752FF03B05DF804FB00BFD5
:101D400014320224103202242DE9F047074690682D
:101D50009946884603681546DDF820A01B6A984717
:101D600041F66773984205D8424BA321424A434843
:101D700024F04EFF686803681B6A98470F2803D851
:101D80003F4BA4213C4AF2E7E86803681B6A984786
:101D90000B2803D83B4BA521374AE8E711F06CF933
:101DA000043011F08EF9D9F8000010B10368DB6837
:101DB0009847D9F8000010B103681B689847386845
:101DC00010B103685B699847D8F8000010B1036848
:101DD0005B689847386810B103681B689847D8F863
:101DE000000010B103689B689847E8680021036809
:101DF0005B6A9847044620B1002343600372224B7C
:101E00000360A868002103685B6A9847064608B12A
:101E1000FEF72AFE6868002103685B6A984705465A
:101E200010B13146FEF7C4FEC9F80040C8F80050B2
:101E30003E60E5B12B1DCAF800303046C5F808A059
:101E40003368F563DB6898472B6828461B6898471A
:101E50002146304613F05AFA236820461B699847FA
:101E6000236820465B6998472846BDE8F0872B46E3
:101E7000E1E700BFF0830290098702907E84029020
:101E8000BF84029062850290D483029007B5D0F897
:101E9000583100F59E710093044BD0F8542104484A
:101EA000FFF752FF03B05DF804FB00BF14320224B9
:101EB0001032022413B5002249B102AB019203F89B
:101EC000052D0268946801AAA04702B010BD08461B
:101ED000FBE7C0897047008A7047C08870478088D8
:101EE0007047807A00F07F007047807AC0097047A1
:101EF000002070479FED010A704700BF00000000FE
:101F0000406A7047806A704770478B88C069DB0AF7
:101F10000A6850F823001044704710B5C2B1137B13
:101F2000B3B1547BD27A240204F4E0641443026A0D
:101F300098B202EB840213888B4202D192F902001C
:101F400010BD05D80138043280B20028F3D1F7E77C
:101F50000020F5E710B504462C2123F0D1FD2046E2
:101F600010BD000030B58BB00446BDF86050089538
:101F7000BDF85C5007959DF8505006959DF84C5063
:101F800005959DF8485004959DF8445003959DF89B
:101F9000405002959DF83C500195BDF83850009591
:101FA00012F01EFD064B20462360159BE361169B35
:101FB0002362199B63621A9BA3620BB030BD00BF02
:101FC0001888029030B5174D8FB02C78BFF35B8F17
:101FD00014F0010422D1284623F06AFDF0B13F231A
:101FE000012211490993114B0A940893104B05944F
:101FF0001048CDE906430423CDE903320A23CDE995
:102000000B440093CDE90144FFF7ACFF284623F0D1
:102010005BFD094A0949074823F06DFD05480FB0EB
:1020200030BD00BFCC030024F0082090C0B7029060
:10203000BCB70290D003002400000024091F0090C8
:1020400010B5002404600C6014601C6010BD00001A
:1020500030B5174D8FB02C78BFF35B8F14F00104AF
:1020600022D1284623F024FDF0B13F23012211495B
:102070000993114B0A940893104B05941048CDE92D
:1020800006430423CDE903322823CDE90B44009312
:10209000CDE90144FFF766FF284623F015FD094A04
:1020A0000949074823F027FD05480FB030BD00BFA0
:1020B000FC03002418092090B8B70290F8B70290EA
:1020C0000004002400000024091F009030B5184DC2
:1020D0008FB02C78BFF35B8F14F0010424D1284615
:1020E00023F0E6FC00B33F231E2212490993124B52
:1020F0000A940893114B0194079301231048049309
:10210000CDE905430423CDE902431423CDE90B4473
:1021100000931823FFF726FF284623F0D5FC094A31
:102120000949074823F0E7FC05480FB030BD00BF60
:102130002C04002428092090C4B70290FCB7029018
:102140003004002400000024091F0090704710B5DF
:102150000446042123F0D4FC204610BD08B5032911
:102160000FD8DFE801F00A02060A00F01BF8406809
:1021700008BD00F017F88068FAE700F013F800686F
:10218000F6E70020F4E70000004870478C880290D2
:1021900001207047004870474C8C0290082070471F
:1021A00006207047004870475C04002410B5054CB9
:1021B000FFF78CFF2060FFF74BFF6060FFF702FF27
:1021C000A06010BD5C040024002070470020704710
:1021D0000EB403B503AB002153F8042B019311F0A7
:1021E00099FE02B05DF804EB03B070470CB407B57C
:1021F00004AB53F8042B019311F08CFE03B05DF88F
:1022000004EB02B07047000010B5436C044673B392
:10221000038F2BB9184BC521184A194824F0F8FC34
:10222000C38E00EB43035B8C0BB313F0B5FD238F20
:10223000012B03D8134BCB21134AEEE7E28E40F675
:102240003F10531C9BB2092B194688BFA3F10A010A
:1022500004EB4101498C814209D10A2B04EB420273
:1022600028BF0023508C04EB43035884518420463C
:10227000BDE8104013F092BCEC8C0290198E0290D5
:10228000F58C0290398D0290478D029013F04FBC6F
:1022900010B586B002AC84E806001A460AAB2146A7
:1022A00005930193099B0093089B10F067FA06B011
:1022B00010BD000038B5D8B9114B12481B6812493F
:1022C000BBB11A689C681A441C4402605A681A44DC
:1022D0000A606CB10D4B00221A80FFF763FF0546C0
:1022E000FFF75EFF0A4B1C600A4B1D600A4B18800B
:1022F00038BD0A4B03600A4B0B600A4B1C68E8E7C9
:10230000680400246C040024700400247404002475
:10231000243202242C32022428320224F40A20908F
:10232000CC0A2090F00A2090044B1B6853F821003F
:10233000034B1B6803EB4000704700BF7004002490
:102340006C040024012380F8781080F879307047FD
:102350000020704741640031024B18BF0121197001
:10236000704700BFCB31022400207047836B0BB154
:102370000846184770474FF6FF707047406803687B
:102380009B69184780F82610704790F82600704720
:1023900010B50022B1F90840B1F90A10028042805C
:1023A0008480C18010BD0022028042808280C28071
:1023B00070470177704780ED080A704780F8241055
:1023C000704780F82510704701207047983070479B
:1023D0008C30704784307047034B902283F85A2327
:1023E00083F85823704700BF00E100E0094A0A491A
:1023F000D3680A48C3F30A03013B9BB20B801169FF
:10240000C1F30A01013901801364536B43F00103E6
:102410005363704700100050AE040024AC04002445
:10242000014B986A704700BF84100050024B012294
:10243000996243F8602C70478410005070477047D1
:1024400070477047242303FB0101002381F82430E7
:10245000704780F82C10704710B50446302123F0E7
:102460004FFB204610BD10B504462C2123F048FB3D
:10247000204610BD10B50446BC2123F041FB204688
:1024800010BD000010B531B90A4B40F2D2210A4A02
:102490000A4824F0BDFBC0E90F120032084918BFFA
:1024A00001220A7019460268BDE81040D2F88C205B
:1024B000104700BFAE9002903F9E0290E6900290BF
:1024C000CA31022408B5094B1B888B4203D8084B3C
:1024D0001B88934205D9074B9E21074A074824F0E1
:1024E00097FB074B1980074B1A8008BDC0310224A7
:1024F000C23102244B900290FC9D0290E690029023
:10250000C6310224C831022408B531B1044B4FF45E
:102510009171044A044824F07BFB90F8250008BD23
:10252000C88F0290CC930290DC8F029010B531B12D
:10253000064B4FF48E71064A064824F069FB40684A
:1025400011460368BDE810401B6B1847C88F029006
:10255000179A0290DC8F029008B531B1044B4FF40A
:102560008A71044A044824F053FBC06808BD00BFC8
:10257000C88F02905E9B0290DC8F029070B504467B
:102580000D4629B10D4B5E210D4A0E4824F040FB4B
:10259000406811460368DB689847606803689B6A77
:1025A00098472368E060294684F8285020465E6AF0
:1025B00001222B46B446BDE870406047C88F0290A8
:1025C000B8970290DC8F02902DE9F041044617463F
:1025D0000D4629B10E4B4E210E4A0F4824F018FB30
:1025E00040683946026896681A46B04760680368D2
:1025F0009B6A98472368E060294684F82850204663
:102600005E6A01222B46B446BDE8F041604700BF38
:10261000C88F029044960290DC8F029008B529B1D1
:10262000054B4021054A064824F0F2FA8160016119
:10263000C0E9053208BD00BFC88F0290EF94029038
:10264000DC8F029038B504460AF015FA23685D6EF7
:1026500010F012FD01462046A8472368064A20468E
:10266000D3F888500023A2F57F31A8476268034B56
:102670005A64034A536038BD00FC03D06C05002443
:102680007C0400240AF0DEB90AF0E8B90AF0A4B923
:102690000AF005BB10B504460AF02CFF236820465B
:1026A000D3F8AC30BDE8104018470AF0B9BA90F83A
:1026B0007A301BB1406803681B681847184670479A
:1026C00010B590F8784090F834100C4B8C421A7882
:1026D00009D03AB90A490B4A0888148810800122A7
:1026E0000C801A7010BD002AFCD0064A04491488D8
:1026F00008880C8010800022F3E700BFC431022458
:10270000C2310224C0310224134A0023F0B5C2F8BA
:102710008430BFF34F8FD2F8803043F6E076C3F3B6
:10272000C904C3F34E33A5075B0103EA060C284630
:1027300021464CEA0007013900F14040C2F87472AA
:102740004F1CF6D1203B13F1200FEED1BFF34F8F7A
:10275000BFF36F8FF0BD00BF00ED00E0034B5B697E
:10276000DB0301D5FFF7D0BF704700BF00ED00E0ED
:10277000034B5B69DB0301D5FFF7C6BF704700BFA2
:1027800000ED00E070B5044629B1274B6E21274AC1
:10279000274824F03DFA052A2BD8DFE802F003256C
:1027A0002B30373F406803681B69984708B3012303
:1027B00084F82530002384F82630A360236194F840
:1027C0002730B3B96468236820469B6A984723681A
:1027D00005462046DB6A984785420AD12368204691
:1027E0009B69BDE870401847002380F8253080F8C9
:1027F000263070BDC3610023A3602361F9E7C36184
:10280000012380F8263080F82830F4E700230122E5
:1028100080F8253080F82630C261EDE7003318BF1C
:10282000012380F82730E4E7C88F029025910290B9
:10283000DC8F02902DE9F34105461646984629B1F2
:10284000164BE921164A174824F0E2F9406803685C
:102850001B699847F8B1144C012120680AF0ACFEBE
:1028600041460746684611F01BFD104BBDF90210AA
:102870001B886868BDF9002003FB0122016807EB93
:102880004202CD693146A84720680368DB6A02B07E
:10289000BDE8F041184702B0BDE8F081C88F029052
:1028A000AC9C0290DC8F0290CC310224C631022411
:1028B00008B590F8243033B1084B40F26B11084A48
:1028C000084824F0A5F9012280F82420184681F850
:1028D0003430CB860B870B6308BD00BF1B90029082
:1028E000F7980290DC8F0290F8B5044629B13F4B6F
:1028F000A9213F4A3F4824F08BF990F825301BB9B5
:1029000090F82630002B6FD03B4B00271B6893F8C4
:102910006B10236984F826700B44236194F82830E7
:10292000002B54D01368104665685B699847E669C8
:102930002B682EB331465B6A284698472B68E669B8
:102940002846DB6A98478642E7612CBF00260126AD
:102950002B6828469B6A9847A368E0600133A36010
:10296000A069D4E904325A43A36843439A4239D94F
:1029700094F82C1069BB012184F828103046F8BD6A
:10298000226A62B12846D3E909739847216A014453
:102990002846B847A368226A26621344A36094F8C5
:1029A00027602B6826B19B69284698470646CFE7E3
:1029B0009B6A284698472B6807462846DB6A984753
:1029C000874201D22B68EEE784F82560C0E7012634
:1029D000C6E7D31AB3FBF0F30BB92362CBE7013B95
:1029E0002362C9E70021C7E70126C7E7C88F029025
:1029F00092920290DC8F0290CC310224034B4FF074
:102A000080629A604FF080729A60704700E100E047
:102A1000084B4FF08062C3F88820BFF34F8FBFF39D
:102A20006F8F4FF08072C3F88820BFF34F8FBFF3D2
:102A30006F8F704700E100E070B5294E3578BFF325
:102A40005B8F15F0010548D1304623F031F800289E
:102A500043D0244C244B04F134002561E5842585C2
:102A60006585A585C4E90035C4E9025511F089FEE4
:102A700004F158000CF09AFA1C4B2046A3651C4B3D
:102A800040F8843BFEF76CFA1A4B3046C4F890507D
:102A9000C4F884302433C4F89C50C4F88C306423C8
:102AA000C4F8A450A4F8A030002384F8A850C4F8B7
:102AB000AC30C4F8B030C4F8B430C4F8B8300E4B01
:102AC00084F8A95084F8AA50C4F8983022F0FCFF8A
:102AD0000A4A20460A4923F00EF8024870BD00BF9A
:102AE00078040024B0040024C8A90290CC8E02907F
:102AF000448F02907CA902905CA9029000000024FF
:102B00003F24009010B5144C236823B3134B144A90
:102B10001B6C11888B4213D1124B198804F030FDC5
:102B2000226892F86A30013382F86A3000F058FB6C
:102B300020680AF0DFFC0020BDE8104001F0C2BBB5
:102B400004F01EFD206803681B6A98470020BDE85A
:102B5000104001F0E7BB10BDCC3102240010005042
:102B6000AE040024AC04002410B50446482122F031
:102B7000C7FF204610BD000038B5144D144C284640
:102B800000F058FD22461349284622F0B4FF1248AF
:102B9000124B012212490360002380F8272080F89D
:102BA0002C20224680F8243080F8253080F826300A
:102BB00080F828304360C0E90233C0E90433C0E93B
:102BC0000633BDE8384022F096BF00BF6C050024F4
:102BD00000000024432400907C040024908F029085
:102BE0003D24009003685B6C184701207047FEE7A6
:102BF000104B82B0D3F8D42042F01002C3F8D42096
:102C0000D3F8D42002F010020192019ADA6F42F058
:102C10001002DA67DA6F22F01002DA67064B074A11
:102C20001A62074A5A62074B4FF080629A6002B0FC
:102C3000704700BF00440258003E0224512C00900F
:102C4000EF2B009000E100E040F2EF307047000011
:102C5000024B1B68586803685B691847CC31022433
:102C600008B50B280BD8DFE800F01206100A0A0A94
:102C70000A0808080808012008BD0520FCE7054BE4
:102C80007021054A054823F0C3FF0020F4E7022025
:102C9000F2E700BFA79E02907A9F0290C29E029028
:102CA00008B50A2809D8DFE800F010060E08080861
:102CB000080606060600012008BD054B9121054ABD
:102CC000054823F0A5FF0020F6E70220F4E700BF47
:102CD000A79E0290C49F0290C29E0290F8B50C4637
:102CE000487FFFF7BDFF0546A77F3846FFF7B8FFCF
:102CF00006463846FFF7D4FFA38A628BD21A494BA7
:102D00001A64A18A628B521A9A61A18A228B521A82
:102D10001A615863A18AE28A42EA01425A6422692E
:102D2000DA636268DA602268402A70D010D8042A18
:102D30003BD0202A6BD0237F45EA0365394B45F40D
:102D40000035DD61617FA27F914267D0364A4BE05A
:102D5000B2F5807F1BD0B2F5007F23D0802AEAD164
:102D6000A068021DDA62227F45EA026545F400355B
:102D7000DD615E6222695A610278EAB1012A35D0CA
:102D80002A4B40F21B112A4A2A4823F041FF217F97
:102D9000294A42EA0162DA61E2681A625E622269E5
:102DA0005A6120E0217F254AF3E7227F45EA026548
:102DB00045F40035DD61F1E7D9694288501E21F400
:102DC0007F42012122F0100242EA0022DA61154B13
:102DD000DA6942F02002DA61DA699206FCD4102244
:102DE0009A600029B2D0164A1A60F8BDDA694088A4
:102DF00022F47F42217F013822F01002FF3942F095
:102E0000100218BF012142EA0022DA61DFE7237FC6
:102E100045EA0365034B45F40035CBE742F2013246
:102E2000E2E700BF00100052012301008D9E0290D6
:102E30003C9F0290C29E02900A000200090002001C
:102E40000123020010B5887F0C46FFF729FF1C4BB9
:102E50005863A18AE28A42EA01425A642269DA632B
:102E6000628BA18A521A1A642268082A16D1A18A92
:102E7000628B521A9A61A18A628B521A1A61586245
:102E8000104A217F42EA0162DA61E2681A6222692D
:102E90005A612269DA600C4A1A6010BD0022D861BA
:102EA0001A61E1680A0A4809C1F3C40102F47842D0
:102EB00000F4FC6002430A439A63044AECE700BF53
:102EC0000010005209000100012302000123030049
:102ED000054B4FF080620360044BC3F88820BFF3BA
:102EE0004F8FBFF36F8F7047F49E029000E100E0B8
:102EF00010B50446FFF7ECFF40F6A451204622F03F
:102F0000FFFD204610BD0000012309491C22037269
:102F10000868084B02FB0030007E20B1086802FB05
:102F2000003001F0A5B8086802FB003001F05EB87F
:102F3000FC3500240C00002410B590F8A03D044698
:102F4000ABB903689B6A9847174B1A681C23534315
:102F5000164AD35C012B09D1154A126832B9227A7C
:102F600022B984F8A03D2046FFF7CEFF10BD037ABA
:102F70004BB1002303721C200B4B1A680B4B00FB58
:102F8000023001F0F7F8606803681B689847002872
:102F9000ECD1637A002BE9D0236884F8A00D204699
:102FA0005B6ABDE810401847FC3500240C00002483
:102FB000F835002410B50446406803681B6898473C
:102FC00058B9637A4BB1237A3BB984F8A03D2046C7
:102FD0002368BDE810405B6A1847084B1A681C2339
:102FE0005343074AD35C012B06D1227A22B984F8D5
:102FF000A03D2046FFF788FF10BD00BFFC35002430
:103000000C00002470B505460B4B0C3000262C46F6
:10301000602268602E726E7244F8203B21460AF0EE
:10302000C7FB05F55A63E6602434A342FBD185F85B
:10303000A06D284670BD00BFF49E0290034B1A6835
:10304000D207FCD423229A60704700BF00100052C0
:103050000C4B5A6912F4803F1A4611D000290FDD3B
:1030600000F01F031944BFF34F8F0144C2F86802F8
:1030700020300B1A002BF9DCBFF34F8FBFF36F8F9B
:10308000704700BF00ED00E030B5104C2568ED073B
:10309000FCD423250904FF2BA56041F001014FF06A
:1030A000020565636164E0630AD00949656241EA2B
:1030B0000363E361074B22626061E060236030BD1F
:1030C000E561039BA363044BF8E700BF00100052C7
:1030D00009000100010002000100030030B50F4C9F
:1030E0002568ED07FCD423251204FF2BA56042F0D0
:1030F00001024FF0020565636264E063E16008D09D
:103100001B0643F00213E361054B656260612360B7
:1031100030BD044BE3610123F9E700BF001000520A
:1031200001000200020002FF30B50B4C2568ED07DC
:10313000FCD4232512041B06A56042F001020225DF
:1031400043F4003365636264E063E160E361034B71
:1031500065626061236030BD001000520100020012
:103160000121002208B5084607F051FF0A4B1860FC
:1031700028B90A4B28210A4A0A4823F049FD0022AF
:103180000421012007F0E4FF074B186018B9074B32
:103190002C21034AF0E708BDB80500240FA00290D7
:1031A000C3A0029058A00290B405002481A0029010
:1031B000024B4FF0FF31186807F074BFB8050024C8
:1031C000014B186807F09ABFB8050024024B002194
:1031D000186807F067BF00BFB8050024FFF7F0BF0D
:1031E0000023034803491A46006807F0EDBF00BFFB
:1031F000B40500240400002413B50023074C01A9E2
:103200001A46206808F012F84FF0FF33002201A997
:10321000206808F00BF802B010BD00BFB405002410
:103220007047704770477047012070470C20704707
:103230000C2303FB0100083070470C2303FB010043
:10324000083070470120704741F6B470704741F66E
:10325000B47303FB01000830704741F6B47303FBFD
:10326000010008307047012070471020704700EBC4
:1032700001100830704700EB011008307047084615
:10328000FEF78CBC034B10B50446036009F0F6F85A
:10329000204610BD64A1029010B50446FFF7F2FF6E
:1032A0001421204622F02CFC204610BD034B10B503
:1032B0000446036009F0E2F8204610BD30A10290F8
:1032C00010B50446FFF7F2FF41F6BC71204622F02C
:1032D00017FC204610BD0000034B10B504460360E8
:1032E00009F0CCF8204610BDFCA0029010B50446B1
:1032F000FFF7F2FF1821204622F002FC204610BD05
:10330000094B10B50446036000F5FF500830FFF785
:10331000B9FF04F12C00FFF7C9FF04F11400FFF717
:10332000DBFF204610BD00BF98A1029010B50446F7
:10333000FFF7E6FF42F25C11204622F0E1FB204657
:1033400010BD00002DE9F341FEF724FF00240546DF
:10335000FEF724FF2346014622462846009413F038
:1033600069FB264B264A2046264D1A60FEF7A2FF2F
:10337000254B264A26489A6013F0C4FA2B78BFF3EF
:103380005B8FDB0733D4284622F092FB78B3214CC5
:10339000214F04F5005604F1140004F12C081F4BD2
:1033A0006060C4F80880E7602661236009F068F86F
:1033B0001B4B4046636109F063F81A4B3846E362E1
:1033C00009F05EF8184B301F3B60FDF7BBFA224650
:1033D000311F3046FDF72AFC3046FEF7DFFB28465A
:1033E00022F072FB114A1249204622F084FB114858
:1033F00002B0BDE8F04100F0E1BE00BF303202246F
:1034000068350024BC0500246C3500241C270024EA
:1034100008000024C0050024A825002498A10290DB
:10342000FCA0029030A1029064A102900000002450
:1034300001330090E034002470470000014800F0A0
:10344000D3BE00BFE034002410B50446042122F0AE
:1034500057FB204610BD10B504468C2122F050FBCE
:10346000204610BD10B504461C2122F049FB204621
:1034700010BD10B50446882122F042FB204610BD45
:103480002DE9F041414C424D424B2246424F2846E5
:1034900042492B6022F02FFB414E3846FFF7B2FD28
:1034A00022464049384622F026FBDFF83881304674
:1034B00018F0C8FB22463C49304622F01CFB40462F
:1034C00010F000FF22463949404622F014FB224604
:1034D0003749384822F00FFB37480023012237498B
:1034E000C560038580F82A30C362038680F84830BF
:1034F00080F8492080F84A3080F84B30436580F8E6
:1035000058304366816680F86C3080F86D3080F802
:103510006E302B49C0E90176C0E90433C0E90633B7
:10352000C0E90833C0E90E33C0E91033C0E91333F2
:10353000C0E9173380F86F3080F87A2080F87B205C
:10354000204AC0F8803010604FF4F07280F870307C
:103550000A801D4943670A804FF488721B4980F82E
:1035600078300A801A4980F879300A80194A80F840
:1035700034301370C0F88430174A184B026022466A
:10358000C3671749BDE8F04122F0B5BA0000002436
:103590003827002428A502903C27002421320090DF
:1035A0006C350024D12E00902332009025320090FB
:1035B0004D21009008000024E034002401000001A7
:1035C000C0310224CC310224C6310224C23102248B
:1035D000C8310224C431022450A4029040A50290B4
:1035E000273200901C2700244069704790F8400063
:1035F0007047036B23B9C06A003018BF01207047C1
:1036000001207047806870477047043010B50C4641
:103610000FC884E80F0010BD08B5034A40F2F3114B
:10362000024B034823F0F4FA7EA30290F38C02903D
:10363000EDA1029000220E4B10B511460446036026
:10364000C26380F84020C0E90522C0E90722C0E932
:103650000922C0E90B22C0E90D22C0E90322C0E91A
:103660000122012007F0D3FC024B1860204610BD58
:10367000B4A202907092002430B41546026B42B19D
:10368000C46B406B0C1B204429461A4630BC23F007
:1036900007BFC06A0844F7E710B5036B73B1C36B8B
:1036A000426BC91A5318525C98785C78000440EA5F
:1036B00004201043DB7840EA036010BDC26A53184F
:1036C000525C59789878000440EA0120F1E7036BD6
:1036D00043B1C36BC91A436B5A18585C527840EA1D
:1036E00002207047C36A5A18585C537840EA032096
:1036F0007047000070B50446006B0D461646D8B101
:10370000A36B934208D209230D4AAF210D4884F8D8
:1037100040300D4B23F07CFA0368DB689847206B40
:103720003246616B03681B69984710B90D2384F812
:103730004030606BE56370BDE06A0844FBE700BFA2
:1037400006A40290EDA1029096A202902DE9F0410C
:10375000436904462BB9214BF521214A214823F026
:1037600057FA08228169FFF7C5FFA16943F23006C5
:1037700046F2643504312046FFF78EFFA169A36A43
:10378000084400F108029A4220D2636909300822F5
:10379000013320F0010120466361A161FFF7AAFF18
:1037A000A1692046FFF793FFA169804620460231B8
:1037B000FFF78DFFA169074620460431FFF76CFF34
:1037C000B045DBD1AF42D9D1012004E00123002074
:1037D0006361236AA361BDE8F08100BFA4A10290E8
:1037E000F0A20290EDA1029070B50368002914BF09
:1037F0000D4601250446DB6A9847A84204D2236897
:103800002046DB6A9847054605F18053E669102299
:103810002046013B06EB031606F10801FFF76AFF9D
:1038200006F110012046FFF737FF236A043B0344EB
:10383000C4E9055370BD0000002148222DE9F04184
:103840000446816180F84010FFF754FFA569042306
:10385000634A29462046FFF70FFF48B10323614A18
:1038600040F23D1184F840305F4B604823F0D0F9BE
:1038700005F1080104235E4A2046A161FFF7FCFE22
:1038800038B10423574A40F2451184F84030594B6F
:10389000EBE705F10C010423574A2046A161FFF72D
:1038A000EBFE074638B105234E4A4FF4A67184F863
:1038B0004030524BD9E705F110012046FFF7ECFEEE
:1038C000A669054620B94E4B4FF4A971454ACCE78D
:1038D00006F1080804234B4A20464146FFF7CCFE78
:1038E000002846D0062384F840300423464A06F1D7
:1038F0000C012046FFF7C0FE00283CD0072384F8C7
:1039000040304544414F0C2220462946FFF7F2FE45
:1039100005F1080604233A4620463146FFF7ACFE7F
:1039200094F84030002845D1002B53D105F10C0309
:1039300004352046A3612946FFF7AEFE30442946F0
:1039400060622046FFF7A8FE064404222046314666
:10395000FFF7D0FE04232E4A31462046FFF78CFEA7
:1039600000283BD10123E6616361A3692362BDE8BE
:10397000F0810127B9E7002FC3D006F114012046DA
:10398000FFF78AFE4FF47A7306F12401B0FBF3F0DF
:1039900060602046FFF780FE06F13401A0602046FB
:1039A000FFF77AFE06F13801E0602046FFF774FE6B
:1039B0002061A6E773B9A36AAB42B7D9291D204697
:1039C000FFF76AFE08300C22054420462946FFF71F
:1039D00091FE9DE70A2384F84030C8E70B23FAE7FD
:1039E00020A20290D9A3029025A20290EDA10290FC
:1039F0003EA2029043A202905BA2029060A20290BB
:103A000076A2029082A2029087A202908CA20290DB
:103A100091A20290C0E90A2100220263FFF70CBFC5
:103A2000002310B501630446C36208460B689B6817
:103A30009847A0622046BDE81040FFF7FDBE000099
:103A400073B51E4C1E4D236000231E4C2B601E4D73
:103A5000236029601D4C1E4D23602A6001251D4AEC
:103A60001D4C236013601D4A13601D4A13701376AA
:103A70009376137782F8343082F8353082F8363016
:103A80005576C2E90233C2E90433C2E90933C2E917
:103A90000B33144B5E6B06B1157624681C2505FBB1
:103AA0000422DC684FF4C0736343009353684FF4FF
:103AB000504204F039FE002002B070BD5092002444
:103AC0005C9200246092002464920024FC3500245F
:103AD00068920024003600246C9200244492002452
:103AE0000C000024049200244B68012B0ED1CB68FB
:103AF0001A071EBF23F00F031033CB608B68180723
:103B000003D023F00F0310338B607047022B0DD1CD
:103B1000CB681A0703D023F00F031033CB608B68F8
:103B20005A07F2D023F007030833EDE7002BECD15E
:103B3000CB685807F3D023F007030833EEE7000003
:103B40000B4B30B41A680A441A600A4B1B689A423D
:103B50000CD2094C9A1A2568B2F5504F294428BF57
:103B60004FF45042216030BC04F041BE30BC70477D
:103B70005C92002468920024649200242DE9F843AA
